:020000041400E6
:10000000A0A100105993001461930014639300148D
:100010006593001467930014699300145A5A5A5A4E
:1000200000000000000000000000000021A60014F5
:100030006D93001400000000B9A60014C9A60014B6
:10004000739300147393001489900014000000004F
:100050007393001473930014739300147393001438
:10006000217B001473930014739300147393001492
:100070007393001473930014739300147393001418
:100080007393001473930014739300147393001408
:1000900073930014739300147393001473930014F8
:1000A00099650014796A0014739300147393001413
:1000B00073930014739300147393001473930014D8
:1000C00073930014739300147393001473930014C8
:1000D00073930014739300147393001473930014B8
:1000E00073930014739300147393001473930014A8
:1000F00000000000739300147393001473930014B2
:1001000000000000739300147393001473930014A1
:1001100073930014DFF80CD00AF058FB0048004736
:10012000A1010014A0A1001002F0A2F900200EF01D
:10013000D1FD00200DF094FB00200DF07FFB002886
:10014000FAD044F20804C4F20F04012020704FF4E6
:10015000FA7000F07BFB0020207040F24D304FF62B
:100160002002C1F20040C1F2004200210BF09AFAD5
:1001700040F60004C1F20004206045F221504FF621
:10018000FC02C1F20040C1F2004200210BF08AFAE9
:1001900060604FF0FF300AF05FFC00BFFEE700BF79
:1001A00009F0C6FC0AF096FC40F22910C1F20040AA
:1001B000002100220BF076FA0AF060FC012808BF4B
:1001C0000AF09EFCFEE7000040F60800C1F20000C5
:1001D0000021012241808180C18001810270418122
:1001E0008181C18101824270704700BF704700BFAA
:1001F000704700BF012818BF704780B540F6080C53
:10020000C1F2000C4FF0000E42F60622C1F20002CD
:10021000002001214FF400738CF800E0BDE880401D
:100220000EF020BD704700BF00207047704700BF30
:10023000002070470020704770B540F6080504465E
:100240008007C1F200053AD5002001210EF01EFD05
:1002500042F60626C1F20006F8B168884002305C1A
:10026000072807D140F64800C1F2000001210170C3
:1002700013E000BF68880121013068806888082881
:1002800004BF00206880E8880130E88040F6000064
:10029000C1F2000000680BF0C7F9E8882989401A0C
:1002A00080B2082802D10120287008E06888012166
:1002B00006EB402200204FF400730EF0D3FC6007E1
:1002C00058BF70BDE889298A884203D1012068702F
:1002D00070BD00BFA889A98943F6062205EB41013C
:1002E000C1F200024B8A02EB40220020812100244F
:1002F0000EF0DAFCA8890130A881A889082808BF77
:10030000AC81288A0130288270BD00BF400748BFF9
:1003100005F0D8B8704700BF704700BF704700BFF6
:10032000704700BF704700BF704700BF704700BFF5
:10033000704700BF704700BF704700BF704700BFE5
:10034000704700BF704700BF704700BF40F6080508
:1003500042F6062643F606284FF00009C1F20005D2
:10036000C1F200067F27C1F2000800BF81200021F2
:100370004FF0FF320BF084F9E88829898842F5D0E4
:10038000AC886002305C7E281AD106EB442005E080
:100390006002305C7E2806EB442011D10770601C9F
:1003A0006988B0F1080418BF04468C42F0D181205E
:1003B00000214FF0FF320BF063F90006E8D500BFD3
:1003C000A888698906EB402008EB412102F026F855
:1003D000698905EB41014882A8880130A880A88876
:1003E000082808BFA5F804902889013028812878BA
:1003F00080B1E8882989401A80B208280AD085F897
:1004000000906888012106EB402200204FF4007321
:100410000EF028FC6889013068816889082808BFC7
:10042000A5F80A90E8890130E88168780028A3D00F
:10043000E889298A88429FD0A889411CA981A98975
:1004400008EB4022082908BFA5F80C90298A013141
:10045000298285F8019005EB40014B8A002081211B
:100460000EF022FC88E700BF0B46024600208221E6
:100470000EF01ABC002082210EF0E6BBB0B50128B8
:100480001ED000284ED140F62C04C1F20004606852
:10049000012121700BF018F9002804BF00206060D2
:1004A0004FF64400C1F20040826AD0E903451920AA
:1004B000002190470020A847A0470020B0BD00BF02
:1004C0004FF64401C1F2004140F2C5608A68C1F2B2
:1004D00000400C6990470220A04740F235704FF66B
:1004E0001022C1F20040C1F20042002100240BF0B2
:1004F000D9F840F62C05C1F20005A968686021B959
:1005000000200AF0A5FB0146A86008464FF0FF3125
:100510000AF08CFB05F1140000F042F8A8682C707A
:100520000AF0A8FB0020B0BDB0B540F62C04C1F223
:10053000000460680BF0C8F8002804BF0020606069
:100540004FF64400C1F20040826AD0E903541920FA
:10055000002190470020A0472846BDE8B040004752
:1005600010B54FF64401C1F2004140F2C5608A68FF
:10057000C1F200400C6990470220A04740F235705C
:100580004FF61022C1F20040C1F2004200210BF0F0
:1005900089F840F62C01C1F20001486010BD00BF8F
:1005A000F0B581B04FF64406C1F20046B76A044682
:1005B000182000210025B84719200021B847152030
:1005C0000021B84716200021B84794F904000228FA
:1005D00019D894F90510022918D8A279053AD3B28E
:1005E000032B13D81AA353F820001CA353F821108F
:1005F00052B21DA353F82220084321681043B84784
:100600004FF0000530B1284601B0F0BD0025284666
:1006100001B0F0BD2068D4F8031040F62C02C1F2FE
:100620000002C2F81710506115200121D560156134
:100630000125B84716200121B847B26948F2207059
:10064000C1F200004FF400719047284601B0F0BDA0
:1006500000000000008000000040000000000000DA
:10066000002000000010000001050000010600004D
:10067000010700000100000010B540F62C00C1F297
:1006800000000078E0B94FF64404C1F20044E06A8B
:100690008047C00718BF10BD48F62011C1F2000105
:1006A00000204FF400720BF03FFF012808DB0146E9
:1006B000626948F62010C1F20000BDE81040104702
:1006C00010BD00BFB0B540F62C05C1F20005297879
:1006D000002918BFB0BD0446C00715D048F6201148
:1006E000C1F2000100204FF400720BF01DFF012841
:1006F0000ADB01464FF64400C1F20040426948F669
:100700002010C1F200009047A00701D4B0BD00BF87
:10071000E8684FF4007100F500724FF64400C1F232
:100720000040836948F22070C1F20000EA60BDE831
:10073000B04018474FF64400C1F20040446AC56A11
:1007400040F62C0648F22078C1F20006C1F20008FB
:1007500006E000BF3069104430610A200AF07CF9DD
:10076000A8478007F9D5F768A04731693844421A8D
:10077000B2F5007FEEDA012AEFDB306931696FF301
:100780005F20C0F500706FF35F218242C8BF024650
:10079000414400200BF048FF0128DEDB31690844AA
:1007A000DAE700BF10B540F62C00C1F20000007877
:1007B000002818BF10BD4FF64400C1F20040846A03
:1007C00018200021A047192000212246BDE8104032
:1007D000104700BFB0B540F62C05C1F20005A9686E
:1007E000044621B900200AF033FA0146A860084601
:1007F0004FF0FF310AF01AFA287801280CD1D4F80A
:1008000003002168C5F8170069610124A8680AF08F
:1008100031FA2046B0BD00BF2046FFF7C1FE0446B6
:10082000A8680AF027FA2046B0BD00BF014640F68E
:100830002C00C1F20000D0F8172043690120C1F854
:1008400003200B60704700BF012070474EF6602107
:100850004843401EFDD17047FF224FF001100A703F
:10086000704700BF2DE9F04F89B0814690F9000034
:100870000D46B0F1FF3FC0B208DC9F2806D84846BD
:10088000294609B0BDE8F04FFFF7E6BFAA460AF8CF
:10089000010B4E4616F8010B232800F2BF82DFE859
:1008A00010F02500450057007500A100B90069024D
:1008B000BD02C502E302F702BD02BD02BD02BD02D8
:1008C000BD0201033F0353036F037D03B503CD0353
:1008D000F103FB0305040F04190423042D0477041A
:1008E00081048B0495049F04A90400BF3278A91CDD
:1008F000A2F1F0030F2B4FF0000001F29D80DFE822
:1009000013F01F0923093709370937093709370950
:1009100037093709370937091100110029092F094B
:10092000330900BF4FF4806001F016B93078012818
:1009300000F0A182002840F0818499F8020044F27E
:10094000080100F00100C4F20F01087093E200BF3B
:1009500031780020002908BF0121022900F07084AD
:10096000012940F07E8440F64801C1F200010120D7
:10097000087146F20011C4F20F01002241F8802CE8
:100980006FF4007241F87C2C00F06BBC40F648001C
:10099000C1F200000021017146F20010C4F20F0004
:1009A0004FF48052C0F800214FF40072C0F80421C7
:1009B0004FF48072C0F804214FF40052C0F80021B7
:1009C00050F8EC2C012422F0200240F8EC2C4022BC
:1009D000C0F894218AF8001004F1011009B0BDE8B4
:1009E000F08F00BF99F8010040F64801C1F2000104
:1009F0000874B9F8020001248882B9F80400C0F232
:100A00000504C88200208AF8000004F1011009B032
:100A1000BDE8F08F40F6480BC1F2000B9BF80400D4
:100A2000022800F02784012840F014864FF00008C7
:100A30008BF8008099F80230E81C0790002B09F130
:100A400003074FF0000001F0AC8404904FF0000E5B
:100A5000002000219846B9460691059319F8014BEC
:100A6000A10713D4BEF1000F52D00397BBF8147046
:100A70000E2008A902F086FFC7B3022836D19BF8E2
:100A80000000013F0028F3D001F094B8BEF1000F40
:100A90002AD00397BBF8147004F0110001280290CB
:100AA00010D10137204608A902F06CFF02285FD15F
:100AB000013F01F07F809BF800000028F2D001F098
:100AC00079B800BF0E2008A902F05CFF002F4FF09C
:100AD000000E4FD002284DD19BF80000013F0028A6
:100AE000F0D001F013B900BF002368E0012841F005
:100AF0006D84DDE9071008700898000A4870BDF899
:100B0000220088709DF82300C870081D0790039F7D
:100B1000D7F80100A10607F10509089010D4BBF829
:100B20001470204608A902F02DFF7FB102280DD1D4
:100B30009BF80000013F0028F3D001F0E7B800BFA8
:100B4000CBF818004FF0000E0120ECE0012841F036
:100B50004184200605D5DBF80C00079941F8040B09
:100B600007914FF0000E012001210491DBE000BF4E
:100B70004FF0010E012841F0CC80DDE90710029B07
:100B800008700898039F000A4870BDF822000A1DEB
:100B900088709DF82300012BC8700DD1200605D563
:100BA0000799DBF80C0001F10802486000210120E0
:100BB0000123079204E000BF0023012007920121D6
:100BC000E206039314D45F46BBF814B0E2072BD1BE
:100BD000204608A902F0D6FEBBF1000F38D002284B
:100BE00036D13878ABF1010B0028F1D001F0E4B92F
:100BF000D7F8010007F105090290BBF81600019033
:100C0000E00750D0BBF814702046002102F0BAFE75
:100C1000002F43D0022841D19BF80000013F00285B
:100C2000F2D001F06FBA00BF002977D02046002132
:100C300002F0A8FEBBF1000F00F08680022840F011
:100C400083803878ABF1010B0028EFD001F0B4B904
:100C5000012841F0B281DDF80CE02006BB4605D545
:100C6000DBF80C00079941F8040B0791DDE9071048
:100C7000059B0A4602F8040B08981146000A02F880
:100C8000030CBDF82200079202F8020C9DF8230025
:100C900002F8010C00200490012045E0DDF80CE092
:100CA000012841F03680BBF81470204608A902F0F4
:100CB00069FE3FB1022805D19BF80000013F0028E2
:100CC000F3D017E0012816D1019BDDF80CE04FF0BE
:100CD000010093B10899DBF818201140029A914263
:100CE0000BD09BF80000013B00280193DBD00120D2
:100CF00001E000BF0220DDF80CE00899DBF81820C5
:100D00001140029A914218BF40F01000012841F0B2
:100D1000008000200490012005E000BF0021049124
:100D20004FF0010EBB46059B9BF800100029069969
:100D300001F10101069140F0EC87B8F101084F463E
:100D40007FF48CAE01F028BB012841F036812006EB
:100D500004D4002004900120E2E700BFF86807995E
:100D6000BB4641F8040B00200791049001204FF08E
:100D7000010ED8E740F64807C1F20007387902288B
:100D800000F08684012840F0DF8400223A70B9F830
:100D9000021005F1040B002900F0B08599F8044019
:100DA000A00700F1ED8600200DF12008CDF814B069
:100DB0000790049156F8040FBB46BF8A013906918B
:100DC00008902046414602F0DDFD4FB1022807D1D0
:100DD0009BF80000013F0028F3D000F0E5BE00BF03
:100DE0000699012840F0E1860798002900F10100EA
:100DF0005F460790DED1B88A441C0E20002102F025
:100E0000C1FD022841F0EB82013C01F0E782387815
:100E100000284FF00200F0D001F0E1BAFF20287066
:100E20004FF0011009B0BDE8F08F00BF40F6480058
:100E3000C1F200000179022900F08E84012940F0FE
:100E40009B84D9F802000124089008A90020C0F270
:100E50000504002502F096FD8AF8005004F1011007
:100E600009B0BDE8F08F00BFB9F80100C0EB001079
:100E70008000401EFDD100208AF800000120C0F251
:100E80000500A0F5403404F1011009B0BDE8F08F71
:100E90000020A5F80100022404F1011009B0BDE80A
:100EA000F08F00BF99F8023099F80140D9F803207B
:100EB00046F2001013F00109C4F20F0007D0E10759
:100EC0004FF480510CBFC0F88011C0F8001113F02E
:100ED000020E08D0A6074FF482764FF4007558BF73
:100EE0004FF4C276855113F0040B1EBF4FF4FC255E
:100EF00005EAC425C0F8805013F08001079100F086
:100F00000A85250600F1FE844025C0F8145150F8EA
:100F1000EC5C45F0200540F8EC5C00F0FCBC00BF48
:100F2000D9F80100002800F071814AF24051C0F266
:100F3000AE218842C0F0248440F64801C1F200018D
:100F40000120487100F033BC99F8014009F1020119
:100F5000002C08BF4FF48074204602F07BFC002078
:100F60008AF800004FF4604000EB44303FFA80F014
:100F700000F1011404F1011009B0BDE8F08F00BFC9
:100F8000307840F6480200F003010131C1F200025E
:100F9000C0F3800011775077002062E100208AF8CA
:100FA000000096F800A0BAF1000F00F0318109F1BD
:100FB000020402354FF001084FF0010914F8016BEB
:100FC0002A4616F03F0000F107004FEAD0073046EE
:100FD0002146AAF1010A08BF082701F0BFFA09EB70
:100FE000070016F080013C441CBF3D44B844BAF1F0
:100FF000000F00F10109E1D14FEA094048EA00047D
:1010000004F1011009B0BDE8F08F00BF96F8008030
:1010100040F6480BC1F2000BB8F1000F8BF81E80B0
:1010200000F06084A8F1010CBCF1030F08F0030E7E
:1010300080F0D08300240023F0E300BF40F6480096
:10104000C1F200000179022940F0DE803178827F10
:10105000C177914280F0D8800E2001F063FC01F04E
:10106000F1FA00216970010AA870E970010C000E04
:10107000052429716871C0F2010404F1011009B05E
:10108000BDE8F08F3046514603F0ACFF044604F152
:10109000011009B0BDE8F08F3046514603F0BAFFA9
:1010A000044604F1011009B0BDE8F08F3046514606
:1010B00003F0D8FF044604F1011009B0BDE8F08F39
:1010C0003046514603F0E6FF044604F1011009B032
:1010D000BDE8F08F504604F021F8044604F10110F9
:1010E00009B0BDE8F08F00BF3046514604F00CF95E
:1010F000044604F1011009B0BDE8F08F00208AF821
:1011000000003678002E00F08F8009F1020405F10E
:10111000020B4FF001094FF4807A012705E000BF70
:1011200078192C44471C013E2AD014F8010B46F2D2
:10113000001210F03F0101F107014FEAD1054FF411
:10114000C27108BF082510F0800808BF4FF48271F3
:10115000C4F20F0242F801A021465A4602F0ACFB4D
:10116000012E02BF46F20010C4F20F00C0F804A125
:10117000B8F1000FD4D00137AB44A944013ED4D11B
:1011800049EA074404F1011009B0BDE8F08F00BF3F
:101190003046514604F016F8044604F1011009B037
:1011A000BDE8F08F3046514604F02EFA044604F1B3
:1011B000011009B0BDE8F08F3046514604F038FB0D
:1011C000044604F1011009B0BDE8F08F30465146E5
:1011D00004F0AAFC044604F1011009B0BDE8F08F48
:1011E0003046514604F072FB044604F1011009B088
:1011F000BDE8F08F504604F037FC044604F10110BE
:1012000009B0BDE8F08F00BFFF202AE0FF20D4E244
:101210004FF001084FF4803048EA000404F1011057
:1012200009B0BDE8F08F00BF01274FF0010949EA7E
:10123000074404F1011009B0BDE8F08FFF201BE660
:1012400040F64801C1F2000102220A7146F2001183
:10125000C4F20F0141F87C0C6FF4005041F8800C8F
:1012600002208AF800004FF0011404F1011009B0C7
:10127000BDE8F08F00248BF8004099F801009BF83E
:101280001E1005F1030E88428BF81F0080F0E083EA
:1012900099F8021009F10307002900F02F850020BA
:1012A000079005224FF0000C00208946059002911E
:1012B000BB461BF8014B2346A00762F35F0323D410
:1012C000BCF1000F6BD00397CDF818E00798984653
:1012D0000A2802D00A2001F025FB40F64800C1F29E
:1012E0000000878A0E2008A901F000FDE7B302285C
:1012F0003AD140F64800C1F200000078013F0028D2
:10130000F0D000F0E9BD00BFBCF1000F049327D07E
:1013100040F648000799C1F20000B0F8148081EA55
:10132000030004F01002104300920190CDF818E081
:1013300060D1039708F10107204608A901F0D6FC07
:10134000022840F08380013F00F0C88540F6480045
:10135000C1F2000000780028EED000F0BFBD00BF51
:1013600004F010009EE000BF012841F03B8043469E
:101370000898DDF818800A2188F80000089807917D
:10138000000A88F80100BDF82200039F88F80200D7
:101390009DF8230088F8030008F104008646D7F87A
:1013A000010040F64808A10607F10507C1F2000850
:1013B000089019D4CDF818E004930798BB469842DA
:1013C00002D0049801F0AEFAB8F81470204608A9CB
:1013D00001F08CFC57B3022828D198F80000013F97
:1013E0000028F3D000F088BEC8F818004FF0000CB9
:1013F0001AE100BF0A2902D00A2001F093FA0E2058
:1014000008A901F073FC0A22B8F1000F4FF0000C9C
:1014100020D002281ED140F64800C1F2000000781A
:10142000A8F101080028EAD000F078BE012840F0B9
:10143000E587DDF818E02006049944BFD8F80C00D1
:101440004EF8040B5F464FF0000CECE0039F079A48
:101450004FF0010C0128079240F06B860898DDF8E8
:1014600018C001998CF800000898B1FA81F1000ABF
:101470008CF80100BDF8220049098CF802009DF8A3
:101480002310049B0CF104008CF8031008D02106F3
:1014900000F1AE804FF0010C86465F46A2E000BF2F
:1014A00086460098CDF818E040B3D7F80100B8465A
:1014B000039040F64800C1F20000B0F816B007985B
:1014C000984202D0049801F02DFA40F64800C1F28B
:1014D0000000878A08F105082046002101F006FC7B
:1014E00057B3022828D140F64800C1F20000007826
:1014F000013F0028F0D000F009BE00BF07989846D1
:10150000984202D0404601F00DFA40F64800C1F280
:101510000000878A2046002101F0E8FB002F55D00B
:10152000022853D140F64800C1F200000078013F84
:101530000028EFD000F0F8BD012840F0638740F6A6
:101540004803C1F200039F8A204608A901F0CEFBA0
:1015500057B1022808D140F64800C1F200000078D7
:10156000013F0028F0D019E0012818D1BBF1000F8D
:101570004FF00100474667D040F64803C1F2000330
:1015800008999A691140039A91420DD01878ABF1ED
:10159000010B0028D7D0012005E000BF022040F653
:1015A0004803C1F20003474608999A694FF0000CBE
:1015B0001140039A914218BF40F01000DDF818E086
:1015C0000499012840F0228798462CE0012840F039
:1015D0002187DDF818E02006414619D44FF0010CB0
:1015E0005F46079140F64808C1F200081CE000BFC2
:1015F00040F64808C1F20008D8F80C005F46CCF865
:1016000004000CF108004FF0010C86460CE000BF0E
:1016100040F64808C1F20008D8F80C004FF0010C61
:101620004EF8040B5F460791059998F800000131C8
:101630000028059140F0C486B9F101094FF0050278
:101640007FF436AE00F0C0BE40F64803C1F200039E
:10165000AAE700BF99F8020009F10301002800F091
:101660002F8410F00303A0F1010C00F0E98399F836
:10167000037009F10804F906214658BF09F1040175
:10168000BF0758BF2146012B40F028836046D7E3AF
:1016900000223A703078B97F05F1040B8842F87760
:1016A00080F02C81B9F802000028069000F02A830F
:1016B00099F8048008F0010004900A3001F032F932
:1016C0005FEA887000F13E830020CDF80CB00790EF
:1016D000069908AC56F8040FBB46BF8A013905913C
:1016E00008904046214601F001FB3FB1022805D198
:1016F0009BF80000013F0028F3D035E3059901284D
:1017000040F033830798002900F101005F460790FD
:10171000E0D1049810B10A2001F004F9BBF81400DC
:10172000441C0E20002101F0E1FA022840F06186FD
:10173000013C00F05D869BF8000000284FF002009D
:10174000EFD000F056BE00BF0020A5F80100E87001
:10175000032000F004BE00BF3178827FC177914240
:1017600080F07C81082001F0DDF8D9F8020000F05B
:10177000F1FF002073E100BF0124FF2070E100BFF2
:1017800044F67F21C0F25D510144B1FBF0F14AF60D
:10179000AB20CAF6AA20A1FB000240F64800C1F225
:1017A0000000002343710120022988BF500840F641
:1017B0004801C1F20001886000208AF80000012081
:1017C000C0F20500A0F5803404F1011009B0BDE8B5
:1017D000F08F00BF08F0FC070024002309EB04068B
:1017E000B5780BEB04010BEB440081F82050038526
:1017F000F2782B4481F82120438535791A4481F809
:101800002250828573792A44043481F82330A74218
:101810001344C285E2D109EB0400461CBEF1000F5F
:101820001ED070780BF11E073919887007EB440140
:101830004B81BEF1010F034412D0601CB1783A18FD
:1018400007EB400091704381BEF1020F0B4407D0BB
:10185000A01CF1783A1807EB4000917043810B44CB
:10186000BCF1030F02D200271CE000BF08F0FC0609
:1018700000270BEB070090F820100BEB4702591ADA
:10188000118790F821300437C91A518790F8223017
:10189000BE42A1EB0301918790F82300A1EB000366
:1018A000D387E6D1BEF1000F1CD00BF11E02D01978
:1018B0008078BEF1010FA3EB000302EB47004383E6
:1018C00010D0781C1118897802EB40005B1ABEF129
:1018D000020F438306D0B81C1118897802EB400030
:1018E000591A418300208AF800004FF0011000EBE4
:1018F000084404F1011009B0BDE8F08F002000F0A9
:1019000028BD00BF50F8EC5C25F0200540F8EC5CE9
:101910004025C0F89451002A00F0628203F02003B1
:10192000B3FA83F35F094CF2C06341F20401C0F2E1
:101930002D03CEF200019A4238BF1346B42204F0C0
:10194000E00C5A430B68BCFA8CF14909E6094FEAEE
:101950005408A508B9F1000F47EA01073ED1BEF1CE
:10196000000F40F0878041F20404BBF1000FCEF27B
:10197000000440F02381002F00F00E820799002917
:1019800000F02E824169C1F340118E4200F028829E
:101990002168C91A914280F023824169C1F3401144
:1019A0008E4200F01D822168C91A914280F018828F
:1019B0004169C1F340118E4200F012822168C91AB8
:1019C000914280F00D824169C1F340118E4200F0D6
:1019D00007822168C91A9142D4D301E2BEF1000FF7
:1019E00040F07E80AC4641F20405CEF2000504E0F2
:1019F0002968C91A914280F0F3810168C1F300316E
:101A0000A142F5D1BBF1000F02D1002FF0D009E0C7
:101A10000168C1F34031ACEB0101B1FA81F1490930
:101A20000F42E5D00799002900F0DA814169C1F33E
:101A300040118E42DCD1D3E1042A40F0998030205D
:101A4000888042F63260C2F63160086006208FE07E
:101A500009F10207002000F028BC00BFFF2001248C
:101A6000C0F205048AF8000004F1011009B0BDE8D5
:101A7000F08F00BF41F20404BBF1000FCEF200046E
:101A800040F0E480EFB941682168C91A914280F0C2
:101A9000A78141682168C91A914280F0A1814168FB
:101AA0002168C91A914280F09B8141682168C91A56
:101AB0009142E8D394E100BF2168C91A914280F0B5
:101AC0008F814168C1F340218845F5D107990029EC
:101AD00000F086814169C1F340118E42ECD17FE173
:101AE000B44641F20406CEF2000604E03168C91A99
:101AF000914280F075810168C1F30031A142F5D1B6
:101B00004168C1F340218845F0D1BBF1000F03D1FA
:101B1000002FEBD009E000BF0168C1F34031691A22
:101B2000B1FA81F149090F42E0D00799002900F08C
:101B300057814169C1F340118C45D7D150E100BFB5
:101B400040F2F71012E000BF49F20050C0F6BA2090
:101B500002E000BF4FF40050C5F80200042007E087
:101B600008200870012003E04FF400706880022014
:101B70008AF8000000F1021009B0BDE8F08F00BF44
:101B8000E00700F0B281BE8A88462046002101F0BD
:101B9000F9FE002E00F0A681022840F0A3813878DB
:101BA000013E0028F1D0DCE00220DDF814B0079AF5
:101BB000CFE300BF4FF0010EAAE000BFFFB90799C5
:101BC00061BB01682168C91A914280F009810168EE
:101BD0002168C91A914280F0038101682168C91AFD
:101BE000914280F0FD8001682168C91A9142E8D3D2
:101BF000F6E000BF2168C91A914280F0F1800168C7
:101C0000C1F340318D42F5D10799002900F0E880F9
:101C10004169C1F340118E42ECD1E1E001682168D5
:101C2000C91A914280F0DC8001682168C91A91428A
:101C300080F0D68001682168C91A914280F0D08076
:101C400001682168C91A9142E8D3C9E08FBB416895
:101C5000C1F34021884508BF01682168C91A914233
:101C600080F0BE804168C1F34021884508BF01680B
:101C70002168C91A914280F0B3804168C1F34021C4
:101C8000884508BF01682168C91A914280F0A88080
:101C90004168C1F34021884508BF01682168C91A1D
:101CA0009142D4D39CE000BF2168C91A914280F0D0
:101CB00097804168C1F340218845F5D10168C1F39F
:101CC00040318D42F0D10799002900F089804169A7
:101CD000C1F340118E42E7D182E000BF0F4617F8F2
:101CE000014B4A1DE10648BF1746A107394658BFB8
:101CF0001146022B40F098800238A1E00024002019
:101D0000D3E200BF0022002023E300BF4FF0000E0B
:101D10000220B8F1000F00F0A98118F00302A8F129
:101D2000010C00F05D8109F1050319F8017BF9064A
:101D300048BF9946B90758BF9946012A1AD1E046CB
:101D40004EE100BFBC8A4046002100F0CFFF002CCE
:101D500000F0FE80022840F0FB803878013C00282B
:101D6000F1D002200022F4E20220DDF80CB0079A44
:101D7000EFE200BF494611F8013B09F10507DC0617
:101D800048BF39469B07894658BFB946022A40F0EA
:101D90001981A8F1020823E1079989B92168C91AB4
:101DA00091421DD22168C91A914219D22168C91ADB
:101DB000914215D22168C91A9142EFD310E000BFB9
:101DC0002168C91A91420BD22168C91A914207D2DF
:101DD0002168C91A914203D22168C91A9142EFD3EE
:101DE000016842680223C1F3003103EA1222114460
:101DF0000268042303EAD22211444268082340699E
:101E000003EA1212114400F0200041EA80008AF82F
:101E100000000120C0F2050000F5803404F101103B
:101E200009B0BDE8F08F00BF0A4612F8013B05314A
:101E3000DF0648BF0A469B0758BF0A4603381146CB
:101E4000BCF1030F3CD30A784C1D02F0020312F0E0
:101E500010024FF00502274604BF01224F1C002B41
:101E600008BF0522895C08BF274601F002027C1DDD
:101E700011F010014FF00501234604BF01217B1C26
:101E8000002A08BF0521795C08BF234601F0020241
:101E90005C1D11F010014FF00501274604BF012120
:101EA0005F1C002A04BF052127465A5C7B1DD10612
:101EB000194658BF791C920758BF19460438C2D139
:101EC0000020A5F80100881B0004841C04F1011007
:101ED00009B0BDE8F08F00BF0A2007904FF0010C59
:101EE000022026E10128414664D1002008AE079077
:101EF0000491E007204618BF0E20B7F8148001397E
:101F00000691002908BF04462046314601F03AFDFB
:101F1000B8F1000F08D0022806D13878A8F10108DE
:101F20000028F1D010E000BF012840F0118208988D
:101F30004BF8040B079801300790069901200029FF
:101F4000D7D1049A05E200BF079A022001E200BF40
:101F500001282FD1049800280698A0F101014FF024
:101F6000000040F0CB810790BC8A464605910029CD
:101F700008BF0E26304608A900F0B8FE44B102287A
:101F800006D13878013C00284FF00200F2D0DFE1A2
:101F9000012840F0DD8108984BF8040B07980130C8
:101FA000079005980028A0F101014FF00100DBD156
:101FB000CBE100BF0022CCE10220DDF80CE0BB4603
:101FC000A7E600BF494611F8012B09F10503D70622
:101FD00048BF1946920758BF1946A8F10308894619
:101FE000BCF1030F42D399F8001009F1050701F085
:101FF000020211F010014FF005013B4604BF012120
:1020000009F10103002A08BF052119F8011008BFD2
:102010003B4601F002025C1D11F010014FF005017A
:10202000274604BF01215F1C002A08BF0521595C17
:1020300008BF274601F002027C1D11F010014FF08D
:102040000501234604BF01217B1C002A04BF052192
:102050002346795C5A1DCF06914658BF03F101090A
:10206000890758BF9146B8F10408BCD1DDF8188043
:102070004F46012840F09581BEF1000F12D0B946BD
:10208000BBF8147008AC0E20214601F07BFCFFB1B8
:1020900002281DD19BF80000013F0028F3D0022048
:1020A0004F467EE1049858B3BBF81400441C0E2040
:1020B000002101F067FC022840F07381013C00F030
:1020C0001B819BF8000000284FF00200EFD068E170
:1020D00001284F4640F06581DDE907100870089837
:1020E000000A4870BDF8220088709DF82300C8706F
:1020F00004310120079154E14FF0000C022009E067
:1021000001204EE1DDF80CE002E600BF4FF0000CCC
:102110000220C346049907910BE000BF0A200790F4
:102120004FF0000C022004E04FF0000C0220CDF82C
:102130001C80DDF818E0B9F1000F7AD0E04619F004
:102140000302A9F1010C2DD00BF105031BF8017B53
:10215000F90648BF9B46B90758BF9B46012A01D1E3
:10216000E1461FE0594611F8013B0BF10507DC067B
:1021700048BF39469B078B4658BFBB46022A03D14E
:10218000A9F102090EE000BF594611F8012B0BF12D
:102190000503D70648BF1946920758BF1946A9F14B
:1021A00003098B46BCF1030FC44642D39BF80010D1
:1021B0000BF1050701F0020211F010014FF00501CB
:1021C0003B4604BF01210BF10103002A08BF052192
:1021D0001BF8011008BF3B4601F002025C1D11F024
:1021E00010014FF00501274604BF01215F1C002AA2
:1021F00008BF0521595C08BF274601F002027C1D7B
:1022000011F010014FF00501234604BF01217B1C92
:10221000002A04BF05212346795C5A1DCF06934648
:1022200058BF03F1010B890758BF9346B9F1040960
:10223000BCD1059C01285F4637D1CDF818E007983E
:10224000B9460A2804D00A20674600F06BFBBC465A
:1022500040F64808C1F20008B8F81470A346BCF173
:10226000000F0FD008AC0E20214600F03FFD4FB309
:10227000022827D198F80000013F0028F3D002205F
:102280000FE000BF7C1C0E20002100F02FFD022873
:1022900007D1013CF3D098F8000000284FF002006D
:1022A000F1D0DDF818E05C464F46A870B81BAEEBE5
:1022B0000A016C7041EA004404F1011009B0BDE864
:1022C000F08F00BF01285C464F4611D10898DDF819
:1022D0001890A9F80000BDF8220009F1040189F85E
:1022E00002009DF823008E4689F803000120DCE7F8
:1022F000DDF818E0D9E700BF022052E008AC0790F3
:10230000059121B90A2000F00DFB4FF00E08BE8A9E
:102310004046214600F0EAFC46B1022806D1387852
:10232000013E00284FF00200F2D011E001280FD149
:1023300008984BF8040B079801300790059800287F
:10234000A0F101014FF00100DAD1069A01E000BFCF
:10235000079A110A6A70A970E870ABEB0A0099F845
:102360000410890710D499F8031099F802208906FF
:1023700041EA824101F5802141EA000404F10110A3
:1023800009B0BDE8F08F00BF40F4802404F10110D3
:1023900009B0BDE8F08F00BF98464F4601283FF4D2
:1023A0006BAE0799A870B81BA1EB0A0185F80180F4
:1023B00041EA004404F1011009B0BDE8F08F00BF0C
:1023C0000120BB46B7E600BF029C36E74FF0010E86
:1023D0009FE400BF4FF0000E9BE400BF0220DDE948
:1023E000042BB6E70A2107914FF0010CA1E600BFCC
:1023F0000220069ADDF80CB0ABE700BF4FF0000CEE
:1024000088E600BF4FF0000C83E600BFBB46079193
:1024100091E600BF4FF0000C89E600BFF0B581B037
:1024200002787F2A18D17F220A7047784F70CFB187
:102430008D1C861C4FF0021430462946013FFEF7E2
:1024400011FA044406EB1046002F15FA80F5F3D17B
:10245000204601B0F0BD00BF01B0BDE8F040FEF77E
:1024600001BA00BF4FF00214204601B0F0BD00BF1A
:1024700040F64801C1F20001582300228B6064231A
:1024800041F21440C1E905320123C4F205008A80FB
:102490000A748B838A77032140F8041C0168C907FA
:1024A00009D10168C90704BF01685FEAC17102D19F
:1024B0000168C907F2D046F28400C4F20800502136
:1024C000442201644161016141644163C0F890208C
:1024D0005422C0F89420016046F20000C4F20F00BC
:1024E0004FF48051C0F800124FF40071C0F804128C
:1024F0004FF480724FF40051C0F80422C0F800126B
:1025000020214023C0F89412C0F89432036843F4A9
:1025100080530360436843F400734360436843F4AB
:1025200080734360036843F400530360436823F0FF
:1025300080034360436923F020034361436943F010
:1025400040034361C0F88022026842F48072026056
:102550004EF20840CEF20000017070472DE9F043C2
:1025600010F03F0C08BF4FF0400C470646F2041332
:102570004FF48077C4F20F0358BF4FF4C0774FF485
:1025800000760006FE5025D440F64C024FF48050F1
:10259000C1F2000203E000BFBCEB050C50D011F803
:1025A000017BACF1010600247D03DD67C3F87C01EB
:1025B00055686D1EFDD11D68C3F8FC0055686D1E81
:1025C000FDD1A64204F10105E6D07F08072C2C4678
:1025D000EAD1E1E740F64C084FF4805EC1F2000812
:1025E0000BE000BFC0F1080426FA04F4BCEB000CB9
:1025F00002F8014B08BFBDE8F08311F8014BACF1C4
:1026000001090027002600BF6003D867C3F87CE1FA
:10261000D8F80400401EFDD11868C3F8FCE0D8F8D3
:10262000045000F080006D1EFDD140EA5606B94509
:1026300007F10100D6D06408072F0746E4D1D1E79F
:10264000BDE8F083B0B546F20021C4F20F014FF4AB
:1026500000724FF4805040F64C0C4A60C1F8800084
:10266000C1F2000CDCF804305B1EFDD10860DCF820
:1026700004305B1EFDD1C1F88420C1F88000DCF875
:102680000420521EFDD10860DCF80420521EFDD14A
:10269000C1F88000DCF80420521EFDD10860DCF88F
:1026A0000420521EFDD19CF81B2062B1C1F88000AD
:1026B000DCF804305B1EFDD10860DCF804305B1EE2
:1026C000FDD1013AF2D100236FF01E02C1F8800063
:1026D000DCF80440641EFDD151F8FC4C0860DCF8C5
:1026E00004506D1EFDD104F0800543EA05630132FC
:1026F0004FEA5303EAD34FF400704FF4805248601E
:10270000C1F88020DCF80440641EFDD151F8FC5C67
:102710000A60DCF80440641EFDD1C1F88020DCF8BA
:102720000440641EFDD10A60DCF80440641EFDD143
:10273000C1F88400C1F88020DCF8044005F0800571
:10274000641EFDD10A6043EA0560DCF80410491EEE
:10275000FDD1B0BD10B546F20021C4F20F014FF417
:1027600000724FF4805340F64C0C4A60C1F8803040
:10277000C1F2000CDCF80440641EFDD10B60DCF8F3
:102780000440641EFDD1C1F88420C1F88030DCF81B
:102790000420521EFDD10B60DCF80420521EFDD136
:1027A000C1F88030DCF80420521EFDD10B60DCF84B
:1027B0000420521EFDD19CF81B2062B1C1F880306C
:1027C000DCF80440641EFDD10B60DCF80440641E9C
:1027D000FDD1013AF2D1002241F8802CC1F88030BD
:1027E000DCF80420521EFDD10B60DCF80420521EE0
:1027F000FDD1C1F88030DCF80420521EFDD10B6001
:10280000DCF80420521EFDD1C1F88030DCF8042031
:10281000521EFDD10B60DCF80420521EFDD16FF07A
:102820001E0200BF440341F8804CC1F88030DCF840
:102830000440641EFDD10B60DCF80440641EFDD131
:1028400001324FEA5000EDD39CF81B209CF81A305F
:10285000D44314EB030E31D0400341F8800C4FF405
:102860008050C1F88000DCF80440641EFDD108608F
:10287000DCF80440641EFDD1BEF1010F0FD0D21A66
:10288000023200BFC1F88000DCF804305B1EFDD1CD
:102890000860DCF804305B1EFDD10132F2D34FF446
:1028A00000724A60C1F88000DCF80420521EFDD19D
:1028B0000860DCF80400401EFDD112E04FF4007205
:1028C00040034A6041F8800C4FF48050C1F880000A
:1028D000DCF80420521EFDD10860DCF80400401E24
:1028E000FDD14FF48050C1F88000DCF80420521E66
:1028F000FDD10860DCF80420521EFDD14FF40072B7
:10290000C1F88420C1F88000DCF80420521EFDD1FB
:102910000860DCF80400401EFDD14FF4005041F87F
:10292000800C10BDF0B540F64C02C1F200025778A1
:1029300046F20021C4F20F014FF400754FF48053AA
:102940004D60C1F880309FB30B60C1F880300B60E0
:10295000C1F88450C1F880300B60C1F880300B6042
:102960004FF4005341F8803C92F81BE002EB4E0C10
:10297000BCF82450002D00F0BB8015F00306A5F133
:10298000010400F0A1804FF48057012E2346C1F8C6
:1029900080700F6000F09980022EC1F880700F6087
:1029A00040F00881AB1E032C80F09180A0E000BFB6
:1029B0005468641EFDD10B605468641EFDD1C1F8DB
:1029C00080305468641EFDD10B605468641EFDD1D4
:1029D000C1F88450C1F880305468641EFDD10B608A
:1029E0005468641EFDD1C1F880305468641EFDD166
:1029F0000B6053685B1EFDD14FF4005341F8803CDF
:102A0000D37E02EB4307BD8C75B14FF4805300BFFA
:102A1000C1F880305468641EFDD10B605468641E98
:102A2000FDD1013DF4D1D37ED7183F7F012F15D0C2
:102A30007B424FF4805500BF470341F8807CC1F8CA
:102A400080505468641EFDD10D605468641EFDD131
:102A500001335F1C4FEA5000EED1D37E02EB4303FB
:102A60009B8E002B00F06880400341F8800C4FF4EF
:102A70008050C1F880005468641EFDD1086054681D
:102A8000641EFDD14FF40057012B41F8807C0DD01E
:102A90005B4200BFC1F880005468641EFDD108602D
:102AA0005468641EFDD101335F1CF3D14FF40073F1
:102AB0004B60C1F8800053685B1EFDD10860506810
:102AC000401EFDD149E000BF2B46032C10D34FF42C
:102AD000805400BF043BC1F880400C60C1F88040C6
:102AE0000C60C1F880400C60C1F880400C60F1D1EE
:102AF0007244147F631E17D013F00305A4F1020E75
:102B000014D0420341F8802C4FF48053012D4FEA3A
:102B10005002C1F880300B603CD173461046BEF1C4
:102B2000030F80F05F8084E0024682E0BEF1030F75
:102B300080F058807DE000BF4FF4007340034B608D
:102B400041F8800C4FF48050C1F8800053685B1E40
:102B5000FDD108605068401EFDD14FF48050C1F88F
:102B6000800053685B1EFDD1086053685B1EFDD179
:102B70004FF40073C1F88430C1F8800053685B1EC5
:102B8000FDD108605068401EFDD14FF4005041F85F
:102B9000800CF0BD520341F8802C022D4FEA9002C8
:102BA000C1F880300B600FD1E31E1046BEF1030F59
:102BB00018D23EE04FF48053C1F880300B60EB1E1A
:102BC000032CBFF484AF93E7520341F8802C4FF4F9
:102BD0008052C1F880200A60C208231F1046BEF14F
:102BE000030F26D34EF2000E4FF48054CFF6FF7E33
:102BF000024600BF500341F8800C0EEA0230C1F8D3
:102C000080400C6041F8800C0EEAC220C1F8804080
:102C10000C6041F8800C0EEA8220043B4FEA12124D
:102C2000C1F880400C6041F8800CC1F880400C6015
:102C3000E0D1BCF834300BB3500341F8800C4FF4B2
:102C40008050C1F8800008604FF40052581E41F8CF
:102C5000802C33D010F00306A3F102021CD04FF4F5
:102C60008057012E1046C1F880700F6014D0022EDC
:102C7000C1F880700F6009D1D81E0DE04FF40070CC
:102C80004860500341F8800C1BE000BF4FF48050B7
:102C9000C1F880000860181F032A0FD34FF4805238
:102CA0000438C1F880200A60C1F880200A60C1F8A9
:102CB00080200A60C1F880200A60F1D14FF40070D2
:102CC00048604FF480504FF40072C1F880000860F3
:102CD000C1F880000860C1F88420C1F88000086055
:102CE0004FF4005041F8800CF0BD00BF2DE9F04FCB
:102CF0009DB040F64C02C1F20002567846F2002325
:102D00004EF2000C8346C4F20F034FF400704FF4F0
:102D10008057CFF6FF7C5860C3F8807056B31F60B1
:102D2000C3F88400C3F880701F60C3F880701F6010
:102D300092F81BE0BEF1000F00F0F0801EF00300DF
:102D4000AEF1010600F0D6804FF4805501283746D9
:102D5000C3F880501D6000F0CE800228C3F8805078
:102D60001D6040F09583AEF10207032E80F0C58010
:102D7000D4E000BF55686D1EFDD11F6055686D1E03
:102D8000FDD1C3F88400C3F880705068401EFDD1A7
:102D90001F605068401EFDD1C3F880705068401E0F
:102DA000FDD11F605068401EFDD1D07E68B14FF448
:102DB000805700BFC3F8807055686D1EFDD11F603D
:102DC00055686D1EFDD10138F4D10CEA0B304FF47B
:102DD000805743F8800CC3F880705068401EFDD1C6
:102DE00053F8FC0C1F6055680CEACB266D1EFDD114
:102DF00043F8806CC3F8807055686D1EFDD10226C3
:102E000053F8FC5C1F60546806EA90100CEA8B26AD
:102E1000641EFDD143F8806CC3F880705468C5F31C
:102E2000C016641EFDD153F8FC5C1F6030440426BC
:102E3000546806EA5516641EFDD100EB0608B8F189
:102E4000010F40F049805FEA8B7000F1D58209687C
:102E50006FF01E004FF480574E0343F8806CC3F8A8
:102E600080705468641EFDD11F605468641EFDD1DB
:102E700001304FEA5101EFD3D07E977EC643F61959
:102E800000F02E83490343F8801C4FF48051C3F8AF
:102E900080105468641EFDD119605468641EFDD111
:102EA000012E0CD0C01B0230C3F880105468641E81
:102EB000FDD119605468641EFDD10130F4D34FF484
:102EC00000705860C3F880105068401EFDD1196032
:102ED0005068401EFDD12BE34FF400705860C3F8DA
:102EE00080705068401EFDD11F605068401EFDD1AB
:102EF0001EE300BF7746032E10D34FF4805000BF6F
:102F0000043FC3F880001860C3F880001860C3F85D
:102F100080001860C3F880001860F1D10CEA0B3013
:102F200043F8800C4FF48050C3F880000CEACB25A6
:102F300053F8FC7C186043F8805CC3F8800053F8B9
:102F4000FC5C022606EA9717C5F3C01637440CEA64
:102F50008B26186043F8806CC3F8800053F8FC6C33
:102F6000042505EA561607EB0608B8F1010F1860AC
:102F700040F03E815FEA8B70CDF8708000F13C81BB
:102F80000D684FF48051680343F8800C0CEA05305B
:102F9000C3F88010196043F8800C0CEAC520C3F810
:102FA0008010196043F8800C0CEA8520C3F880106B
:102FB000196043F8800C0CEA4520C3F880101960B2
:102FC00043F8800C0CEA0520C3F88010196043F820
:102FD000800C0CEAC510C3F88010196043F8800C0F
:102FE0000CEA8510C3F88010196043F8800C0CEAD5
:102FF0004510C3F88010196043F8800C0CEA0510E6
:10300000C3F88010196043F8800C0CEAC500C3F8BF
:103010008010196043F8800C0CEA8500C3F880101A
:10302000196043F8800C0CEA4500C3F88010196061
:1030300043F8800C4EF200004EF2000CC7F6FF7011
:10304000C0F23F0C00EA55080CF17F5000EA9509E8
:103050000CF1FE5000EAD500C3F8801019601B90F7
:103060000CF17C6000EA15101A900CF1F86000EA8F
:10307000551019900CF1707000EA951018900CF131
:10308000E07000EAD51017900CF5400000EA15201A
:1030900016900CF5800000EA552015900CEA95205A
:1030A00014904FF4FF1000EAD5264FF47E2000EA7A
:1030B000153428466FF30C0043F8800CC3F88010D9
:1030C000196043F8808CC3F88010196043F8809C25
:1030D000C3F8801019601B9F4FF4FC2043F8807CDC
:1030E000C3F8801019601A9F00EA553C43F8807CB1
:1030F000C3F880101960199F4FF4783043F8807C32
:10310000C3F880101960189F4FF4F03A43F8807CA0
:10311000C3F880101960179F4FF4604943F8807C12
:10312000C3F880101960169F4FF4C04843F8807CA4
:10313000C3F880101960159F00EA953043F8807C31
:10314000C3F880101960149F0AEAD53A09EA1549B4
:1031500008EA554843F8807CC3F88010196043F8AA
:10316000806CC3F88010196043F8804CC3F880105D
:10317000196043F880CCC3F88010196043F8800CC4
:10318000C3F88010196043F880ACC3F88010196050
:1031900043F8809CC3F88010196043F8808CC3F812
:1031A00080101960907E6FEA0E07C6194FEAD57736
:1031B00000F07A817F0343F8807CC3F880101960A7
:1031C000DDF87080771E00F01582A0EB0E00811CE8
:1031D00011F00301A0F1030000F0FA814FF48057D1
:1031E0000129C3F880701F6040F0DC81B71EEFE159
:1031F0004FF40071596002E24FF48058C3F88080A8
:1032000053F8FCCCC3F80080C3F8808053F8FC6C02
:10321000C3F80080C3F8808053F8FC7CC3F80080BA
:10322000C3F8808053F8FC9CC3F80080C3F880800A
:1032300053F8FC4CC3F80080C3F8808053F8FC0CB2
:103240001B90C3F80080C3F8808053F8FC0C1A90E0
:10325000C3F80080C3F8808053F8FC0C1990C3F8C1
:103260000080C3F8808053F8FC0C1890C3F80080ED
:10327000C3F8808053F8FC0C1790C3F80080C3F8A3
:10328000808053F8FC0C1690C3F80080C3F880804F
:1032900053F8FC0C1590C3F80080C3F8808053F8F5
:1032A000FC0C1490C3F80080C3F8808053F8FC0C29
:1032B0001390C3F80080C3F8808053F8FC0C129080
:1032C000C3F80080C3F8808053F8FC0C1190C3F859
:1032D0000080C3F8808053F8FC0C1090C3F8008085
:1032E000C3F8808053F8FC0C0F90C3F80080C3F83B
:1032F000808053F8FC0C0E90C3F80080C3F88080E7
:1033000053F8FC0C0D90C3F80080C3F8808053F88C
:10331000FC0C0C90C3F80080C3F8808053F8FC0CC0
:103320000B90C3F80080C3F8808053F8FC0C0A901F
:10333000C3F80080C3F8808053F8FC0C0990C3F8F0
:103340000080C3F8808053F8FC0C0890C3F800801C
:10335000C3F8808053F8FC0C0790C3F80080C3F8D2
:10336000808053F8FC0C0690C3F80080C3F880807E
:1033700053F8FC0C0590C3F80080C3F8808053F824
:10338000FC0C0490C3F80080C3F8808053F8FC0C58
:103390000390C3F80080C3F8808053F8FC0C0290BF
:1033A000C3F80080957E6FEA0E0015EB000A00F06E
:1033B00087800194C3F8808053F8FC0CBAF10104B3
:1033C0000090C3F80080DDF8708000F08981A5EBE3
:1033D0000E05A81C10F00300A5F1030500F06D8197
:1033E0004FF480540128C3F880401C6040F0E28014
:1033F000AAF1020461E100BF00276FF01E004FF444
:10340000805600BFC3F880605468641EFDD153F835
:10341000FC5C1E60546805F08005641EFDD147EA1F
:10342000056701304FEA5707ECD3D07E947EC64340
:1034300016EB040E00F066804FF48055C3F8805000
:103440005668761EFDD153F8FCCC1D605668761E7A
:10345000FDD1BEF1010F0CD0001B0230C3F880502B
:103460005468641EFDD11D605468641EFDD1013096
:10347000F4D34FF400705860C3F880505068401E79
:10348000FDD11D605068401EFDD100294BD14FE099
:103490004FF48050C3F880001860AEF10307032E8C
:1034A000BFF42BAD3AE500BF4FF4007058607803CD
:1034B00043F8800CC3F880101960DDF87080A1E03B
:1034C0004FF400705860C3F8808053F8FCECDDF8CE
:1034D00070804FF480500029186040F0108191E016
:1034E0004FF400705860480343F8800C4FF480504C
:1034F000C3F880005168491EFDD118605068401E15
:10350000FDD115E04FF4007058604FF48050C3F8BF
:1035100080005468641EFDD153F8FCCC18605068DC
:10352000401EFDD121B10CF0800047EA0060086028
:103530004FF48050C3F880005168491EFDD11860D7
:103540005168491EFDD14FF40071C3F88410C3F8CF
:1035500080005168491EFDD118605068401EFDD1A1
:103560004FF400505FEA0B6143F8800C05D541F23F
:103570000400CEF2000000689060107B002800F08C
:1035800087804FF4805100BFC3F880105468641ED8
:10359000FDD1196054680138641EFDD10028F3D1B3
:1035A00076E000BF0229C3F880701F600AD1F71EC1
:1035B0000EE000BF0228C3F880401C6076D1AAF15B
:1035C00003047AE04FF48051C3F880101960371F6C
:1035D00003280FD34FF48050043FC3F880001860D5
:1035E000C3F880001860C3F880001860C3F880003A
:1035F0001860F1D14FF4007058604FF48050C3F858
:10360000800018604FF480504FF40071C3F88000C0
:103610001860C3F88410C3F8800018604FF400509D
:103620005FEA0B6143F8800C05D541F20400CEF24D
:10363000000000689060127B52B312F00307A2F101
:10364000010111D04FF48056012F0846C3F8806065
:103650001E600AD0022FC3F880601E601CD1901E2D
:10366000032915D303E000BF1046032910D34FF4FC
:10367000805100BF0438C3F880101960C3F880106F
:103680001960C3F880101960C3F880101960F1D177
:1036900040461DB0BDE8F08FD01E4FF48052C3F8F5
:1036A00080201A600329F3D3E1E700BF4FF4805074
:1036B000C3F880001860AAF10404032D10D34FF45E
:1036C000805500BF043CC3F880501D60C3F8805093
:1036D0001D60C3F880501D60C3F880501D60F1D19B
:1036E0004FF4007058604FF48050C3F88000DDE95B
:1036F00000E44FF48050002918603FF483AF4FF08E
:10370000804000EACC5006F0800540EA056007F0F2
:103710008005ED0545EA900009F0800540EA056066
:1037200004F080051B9FED0545EA900007F0800539
:103730001A9F40EA056007F08005199FED0545EAEC
:10374000900007F08005189F40EA056007F08005AB
:10375000179FED0545EA900007F08005169F40EAA7
:10376000056007F08005159FED0545EA900007F01C
:103770008005149F40EA056007F08005139FED0562
:1037800045EA900007F08005129F40EA056007F0C7
:103790008005119FED0545EA900007F08005109F18
:1037A00040EA056007F080050F9FED0545EA9000AF
:1037B00007F080050E9F40EA056007F080050D9F29
:1037C000ED0545EA900007F080050C9F40EA056092
:1037D00007F080050B9FED0545EA900007F0800596
:1037E0000A9F40EA056007F08005099FED0545EA5C
:1037F000900007F08005089F40EA056007F080050B
:10380000079FED0545EA900007F08005069F40EA16
:10381000056007F08005059FED0545EA900007F07B
:103820008005049F40EA056007F08005039FED05D1
:1038300045EA900007F08005029F40EA056007F026
:103840008006F60546EA90000EF0800740EA076021
:103850000860D7E670B5002808BF70BD46F20022A8
:1038600040F64C040023C4F20F024FF4007C4FF4E6
:10387000805EC1F20004002516E000BFEE074FF0A5
:10388000040608BF842642F806C0C2F880E06668D5
:10389000761EFDD1C2F800E066680138761EFDD1C3
:1038A0006D08A3F1010328B1002BE7D111F8015BEA
:1038B0000823E3E770BD00BF2DE9F04110F03F0C95
:1038C00008BF4FF0400C000646F28410C4F20F000F
:1038D00026D440F64C034FF4805EC1F2000304E0AE
:1038E000BCEB060C08BFBDE8F08111F8012BACF170
:1038F0000104002556020660C0F8FCE05E68761EF2
:10390000FDD1C0F87CE05E68761EFDD1AC4205F1C9
:103910000106E5D05208072D3546EBD1E0E700BFA0
:1039200040F64C034FF48058C1F200036FF07F0E55
:1039300009E000BFC7F1080125FA01F1BCEB070C53
:1039400002F8011B1CD0ACF101040026002500BFC9
:10395000C0F8FC805F687F1EFDD10768C0F87C80DE
:103960005968491EFDD10EEA970141EA5505B44256
:1039700006F10107DED0072E3E46E9D1DAE700BFA7
:10398000BDE8F0812DE9F04740F64C09C1F200098D
:1039900099F8013046F2002A4FF6FC7C4FF6FE788B
:1039A000C4F20F0AC0F2FF1CC0F2FF084FF400750A
:1039B0004FF48054002B4AF87C5CCAF8804000F039
:1039C000A5804302CAF800404AF87C3C43085B02E9
:1039D000CAF88040CAF800404AF87C3C00EB50032B
:1039E0008608760203EB9003CAF88040CAF80040CC
:1039F0004AF87C6CC60803EBD00376025B02CAF877
:103A00008040CAF800404AF87C6CCAF88040CAF886
:103A100000404AF87C3C0023CAF88040CAF80040C5
:103A20004AF87C3C4FF48073CAF88040CAF80040E2
:103A30004AF87C5CCAF88040CAF80040CAF8843072
:103A400099F818E0BEF1000F2ED0AEF101051EF07E
:103A50000303744611D04FF48056012B2C46CAF84C
:103A60008060CAF8006008D0022BCAF88060CAF8EB
:103A7000006040F0A385AEF10204032D14D34FF48F
:103A8000805300BF043CCAF88030CAF80030CAF83E
:103A90008030CAF80030CAF88030CAF80030CAF85E
:103AA0008030CAF80030EDD14FF48053CAF880302E
:103AB0005AF87C4CCAF80030CAF880305AF87C5C5E
:103AC000CAF80030CAF880305AF87C6C08EA15252C
:103AD00045EA54240CEAD61644EA060CBCF1040F5D
:103AE000CAF8003018BFBCF1020F40F0278499F8E3
:103AF000191010F0020018BF002940F04584BEF1F3
:103B0000000F40F0CB8400F01FBE00BFD9F80420A6
:103B1000521EFDD1CAF80040D9F80420521EFDD132
:103B200042024AF87C2CCAF88040D9F80420521E80
:103B3000FDD1CAF80040D9F80420521EFDD1420838
:103B400052024AF87C2CCAF88040D9F80420521E50
:103B5000FDD1CAF80040D9F80420521EFDD18208D8
:103B600052024AF87C2CCAF88040D9F80420521E30
:103B7000FDD1CAF80040D9F80420521EFDD1C20878
:103B800052024AF87C2CCAF88040D9F80420521E10
:103B9000FDD1CAF8004000EB5003D9F8042003EB34
:103BA0009003521EFDD103EBD00252024AF87C2C46
:103BB000CAF88040D9F80420521EFDD1CAF800404E
:103BC000D9F80420521EFDD100224AF87C2CCAF8F4
:103BD0008040D9F80420521EFDD1CAF80040D9F81F
:103BE0000420521EFDD14AF87C5CCAF88040D9F806
:103BF0000420521EFDD1CAF80040D9F80420521EFC
:103C0000FDD14FF48072CAF8842099F818307BB146
:103C10004FF48055CAF88050D9F80420521EFDD1C7
:103C2000CAF80050D9F80420521EFDD1013BF1D151
:103C30004FF48052CAF88020D9F804305B1EFDD1C1
:103C40005AF87C3CCAF80020D9F80440641EFDD123
:103C5000CAF88020D9F80440641EFDD15AF87C7C53
:103C6000CAF80020D9F80440641EFDD1CAF88020AB
:103C7000D9F80440641EFDD15AF87C6CCAF80020C3
:103C8000D9F8042008EA1727521EFDD147EA53232A
:103C90000CEAD61243EA020CBCF1040F18BFBCF1C7
:103CA000020F40F0178410F0020000F0938199F8A1
:103CB0001910002900F08E814FF48051CAF880104D
:103CC000D9F80420521EFDD1CAF80010D9F80420FA
:103CD000521EFDD1CAF88010D9F80420521EFDD121
:103CE000CAF80010D9F80420521EFDD1CAF880107D
:103CF000D9F80420521EFDD1CAF80010D9F80420CA
:103D0000521EFDD1CAF88010D9F80420521EFDD1F0
:103D1000CAF80010D9F80420521EFDD1CAF880104C
:103D2000D9F80420521EFDD1CAF80010D9F8042099
:103D3000521EFDD1CAF88010D9F80420521EFDD1C0
:103D4000CAF80010D9F80420521EFDD1CAF880101C
:103D5000D9F80420521EFDD1CAF80010D9F8042069
:103D6000521EFDD1CAF88010D9F80420521EFDD190
:103D7000CAF80010D9F80420521EFDD1CAF88010EC
:103D8000D9F80420521EFDD1CAF80010D9F8042039
:103D9000521EFDD1CAF88010D9F80420521EFDD160
:103DA000CAF80010D9F80420521EFDD1CAF88010BC
:103DB000D9F80420521EFDD1CAF80010D9F8042009
:103DC000521EFDD1CAF88010D9F80420521EFDD130
:103DD000CAF80010D9F80420521EFDD1CAF880108C
:103DE000D9F80420521EFDD1CAF80010D9F80420D9
:103DF000521EFDD1CAF88010D9F80420521EFDD100
:103E0000CAF80010D9F80420521EFDD1CAF880105B
:103E1000D9F80420521EFDD1CAF80010D9F80420A8
:103E2000521EFDD1CAF88010D9F80420521EFDD1CF
:103E3000CAF80010D9F80420521EFDD1CAF880102B
:103E4000D9F80420521EFDD1CAF80010D9F8042078
:103E5000521EFDD1CAF88010D9F80420521EFDD19F
:103E6000CAF80010D9F80420521EFDD1CAF88010FB
:103E7000D9F80420521EFDD1CAF80010D9F8042048
:103E8000521EFDD1CAF88010D9F80420521EFDD16F
:103E9000CAF80010D9F80420521EFDD1CAF88010CB
:103EA000D9F80420521EFDD1CAF80010D9F8042018
:103EB000521EFDD1CAF88010D9F80420521EFDD13F
:103EC000CAF80010D9F80420521EFDD1CAF880109B
:103ED000D9F80420521EFDD1CAF80010D9F80420E8
:103EE000521EFDD1CAF88010D9F80420521EFDD10F
:103EF000CAF80010D9F80420521EFDD1CAF880106B
:103F0000D9F80420521EFDD1CAF80010D9F80420B7
:103F1000521EFDD1CAF88010D9F80420521EFDD1DE
:103F2000CAF80010D9F80420521EFDD1CAF880103A
:103F3000D9F80420521EFDD1CAF80010D9F8042087
:103F4000521EFDD1CAF88010D9F80420521EFDD1AE
:103F5000CAF80010D9F80420521EFDD1CAF880100A
:103F6000D9F80420521EFDD1CAF80010D9F8042057
:103F7000521EFDD1CAF88010D9F80420521EFDD17E
:103F8000CAF80010D9F80420521EFDD1CAF88010DA
:103F9000D9F80420521EFDD1CAF80010D9F8042027
:103FA000521EFDD1CAF88010D9F80420521EFDD14E
:103FB000CAF80010D9F80420521EFDD1CAF88010AA
:103FC000D9F80420521EFDD1CAF80010D9F8041007
:103FD000491EFDD199F8181081B14FF4805300BFEC
:103FE000CAF88030D9F80420521EFDD1CAF800303A
:103FF000D9F80420521EFDD10139F1D14FF480715E
:104000000028CAF8041040F0B78699F81900002873
:1040100000F0B28600204AF87C0C4FF48050CAF8B9
:104020008000D9F80410491EFDD1CAF80000D9F863
:104030000410491EFDD1CAF88000D9F80410491EA9
:10404000FDD1CAF80000D9F80410491EFDD1CAF804
:104050008000D9F80410491EFDD1CAF80000D9F833
:104060000410491EFDD1CAF88000D9F80410491E79
:10407000FDD1CAF80000D9F80410491EFDD1CAF8D4
:104080008000D9F80410491EFDD1CAF80000D9F803
:104090000410491EFDD1CAF88000D9F80410491E49
:1040A000FDD1CAF80000D9F80410491EFDD1CAF8A4
:1040B0008000D9F80410491EFDD1CAF80000D9F8D3
:1040C0000410491EFDD1CAF88000D9F80410491E19
:1040D000FDD1CAF80000D9F80410491EFDD1CAF874
:1040E0008000D9F80410491EFDD1CAF80000D9F8A3
:1040F0000410491EFDD1CAF88000D9F80410491EE9
:10410000FDD1CAF80000D9F80410491EFDD1CAF843
:104110008000D9F80410491EFDD1CAF80000D9F872
:104120000410491EFDD1CAF88000D9F80410491EB8
:10413000FDD1CAF80000D9F80410491EFDD1CAF813
:104140008000D9F80410491EFDD1CAF80000D9F842
:104150000410491EFDD1CAF88000D9F80410491E88
:10416000FDD1CAF80000D9F80410491EFDD1CAF8E3
:104170008000D9F80410491EFDD1CAF80000D9F812
:104180000410491EFDD1CAF88000D9F80410491E58
:10419000FDD1CAF80000D9F80410491EFDD1CAF8B3
:1041A0008000D9F80410491EFDD1CAF80000D9F8E2
:1041B0000410491EFDD1CAF88000D9F80410491E28
:1041C000FDD1CAF80000D9F80410491EFDD1CAF883
:1041D0008000D9F80410491EFDD1CAF80000D9F8B2
:1041E0000410491EFDD1CAF88000D9F80410491EF8
:1041F000FDD1CAF80000D9F80410491EFDD1CAF853
:104200008000D9F80410491EFDD1CAF80000D9F881
:104210000410491EFDD1CAF88000D9F80410491EC7
:10422000FDD1CAF80000D9F80410491EFDD1CAF822
:104230008000D9F80410491EFDD1CAF80000D9F851
:104240000410491EFDD1CAF88000D9F80410491E97
:10425000FDD1CAF80000D9F80410491EFDD1CAF8F2
:104260008000D9F80410491EFDD1CAF80000D9F821
:104270000410491EFDD1CAF88000D9F80410491E67
:10428000FDD1CAF80000D9F80410491EFDD1CAF8C2
:104290008000D9F80410491EFDD1CAF80000D9F8F1
:1042A0000410491EFDD1CAF88000D9F80410491E37
:1042B000FDD1CAF80000D9F80410491EFDD1CAF892
:1042C0008000D9F80410491EFDD1CAF80000D9F8C1
:1042D0000410491EFDD1CAF88000D9F80410491E07
:1042E000FDD1CAF80000D9F80410491EFDD1CAF862
:1042F0008000D9F80410491EFDD1CAF80000D9F891
:104300000410491EFDD1CAF88000D9F80410491ED6
:10431000FDD1CAF80000D9F80410491EFDD1CAF831
:104320008000D9F80410491EFDD1CAF80000D9F860
:104330000400401EFDD100F01FBD00BFBCF1010F05
:1043400040F01481830700F14781BEF1000F00F0B7
:104350005983AEF101051EF00303764600F03C835D
:104360004FF48054012B2E46CAF88040CAF8004012
:1043700000F03283022BCAF88040CAF8004040F0B7
:104380002383AEF1020627E34FF48053CAF880304E
:10439000CAF80030CAF88030CAF80030CAF8803055
:1043A000CAF80030CAF88030CAF80030CAF8803045
:1043B000CAF80030CAF88030CAF80030CAF8803035
:1043C000CAF80030CAF88030CAF80030CAF8803025
:1043D000CAF80030CAF88030CAF80030CAF8803015
:1043E000CAF80030CAF88030CAF80030CAF8803005
:1043F000CAF80030CAF88030CAF80030CAF88030F5
:10440000CAF80030CAF88030CAF80030CAF88030E4
:10441000CAF80030CAF88030CAF80030CAF88030D4
:10442000CAF80030CAF88030CAF80030CAF88030C4
:10443000CAF80030CAF88030CAF80030CAF88030B4
:10444000CAF80030CAF88030CAF80030CAF88030A4
:10445000CAF80030CAF88030CAF80030CAF8803094
:10446000CAF80030CAF88030CAF80030CAF8803084
:10447000CAF80030CAF88030CAF80030CAF8803074
:10448000CAF80030CAF88030CAF80030CAF8803064
:10449000CAF80030BEF1000F00F05681AEF1010401
:1044A0001EF00305734600F039814FF48056012D4C
:1044B0002346CAF88060CAF8006000F02F81022D00
:1044C000CAF88060CAF8006040F02081AEF10203B3
:1044D00024E100BFBCF1010F40F05A80820700F1D7
:1044E000D98199F818307BB14FF48056CAF88060B2
:1044F000D9F80420521EFDD1CAF80060D9F8042072
:10450000521EFDD1013BF1D14FF48072CAF8042054
:104510000B6800216FF01F064FF480555A024AF8CD
:104520007C2CCAF88050D9F80420521EFDD1CAF85C
:104530000050D9F80420521EFDD1194401364FEA2B
:104540005303EBD349024AF87C1C4FF48051CAF85C
:104550008010D9F80420521EFDD1CAF80010D9F8F5
:1045600004104FF0010C491EFDD1E1E10EF12100D4
:1045700010F0030100F008824FF480500129CAF8BE
:104580008000CAF8000040F07B810EF12000FBE1C2
:1045900099F818004FF48051213000BFCAF88010FC
:1045A000D9F80420521EFDD1CAF80010D9F8042011
:1045B000521EFDD10138F1D1FAE100BF4FF4805213
:1045C000CAF88020CAF80020AEF10304032DBFF41E
:1045D00056AAFFF769BA00BF00236FF01F064FF419
:1045E00080550024CAF880505AF87C7CCAF80050E4
:1045F000CAF880507A0A03EB57235AF87C7CD2071A
:1046000042EA54027C0ACAF80050CAF8805003EB10
:104610005723E7075AF87C4CCAF80050CAF8805074
:1046200047EA5202670A03EB54235AF87C4CFF070F
:10463000CAF80050CAF8805047EA5202670A03EBF2
:1046400054235AF87C4CFF07CAF80050CAF880502F
:1046500047EA5202670A03EB54235AF87C4CFF07DF
:10466000CAF80050CAF8805047EA5202670A03EBC2
:1046700054235AF87C4CFF07CAF80050CAF88050FF
:1046800047EA5202670A03EB54235AF87C4CFF07AF
:1046900047EA5202670AFF0703EB5423083647EA4A
:1046A0005204CAF800509DD14FF48052CAF88020BD
:1046B0005AF87C7C4FF0080C83EA5723DB0708BFCD
:1046C0004FF0010C0029CAF8002018BF0C60BEF1A1
:1046D000000F00F00783AEF101041EF003037146E2
:1046E00000F0EA824FF48055012B2146CAF8805031
:1046F000CAF8005000F0E082022BCAF88050CAF8D5
:10470000005040F0D182AEF10201D5E24FF4805268
:10471000CAF88020CAF80020AEF10303032C13D39B
:104720004FF48057043BCAF88070CAF80070CAF88A
:104730008070CAF80070CAF88070CAF80070CAF8B1
:104740008070CAF80070EDD14FF480720028CAF86A
:10475000042040F01183002900F00E8300204AF865
:104760007C0C4FF48050CAF88000CAF80000CAF8E8
:104770008000CAF80000CAF88000CAF80000CAF831
:104780008000CAF80000CAF88000CAF80000CAF821
:104790008000CAF80000CAF88000CAF80000CAF811
:1047A0008000CAF80000CAF88000CAF80000CAF801
:1047B0008000CAF80000CAF88000CAF80000CAF8F1
:1047C0008000CAF80000CAF88000CAF80000CAF8E1
:1047D0008000CAF80000CAF88000CAF80000CAF8D1
:1047E0008000CAF80000CAF88000CAF80000CAF8C1
:1047F0008000CAF80000CAF88000CAF80000CAF8B1
:104800008000CAF80000CAF88000CAF80000CAF8A0
:104810008000CAF80000CAF88000CAF80000CAF890
:104820008000CAF80000CAF88000CAF80000CAF880
:104830008000CAF80000CAF88000CAF80000CAF870
:104840008000CAF80000CAF88000CAF80000CAF860
:104850008000CAF80000CAF88000CAF80000CAF850
:104860008000CAF80000CAF88000CAF800004FF4BF
:1048700000715FFA8CF04AF87C1CBDE8F08700BF3D
:104880000229CAF88000CAF8000040F075800EF1D5
:104890001F0079E000256FF01F034FF4805C0026B5
:1048A000CAF880C0D9F80420521EFDD15AF87C2CD9
:1048B000CAF800C0D9F80470540A7F1EFDD105EB78
:1048C0005225E207013342EA5606E9D34FF48052FB
:1048D000CAF88020D9F804305B1EFDD15AF87C3C20
:1048E000CAF80020D9F80420521EFDD185EA5322CF
:1048F000D2074FF0080C08BF4FF0010C002918BF79
:104900000E6099F8181079B14FF48053CAF88030CE
:10491000D9F80420521EFDD1CAF80030D9F804207D
:10492000521EFDD10139F1D14FF48071CAF8041043
:10493000000606D541F20400CEF200000068C9F876
:10494000080099F80C00002800F0168200214AF8AF
:104950007C1C4FF4805100BFCAF88010D9F80420A5
:10496000521EFDD1CAF80010D9F80420521EFDD104
:104970000138F1D100E200BF4FF48050CAF8800046
:10498000CAF800000EF11E004FF480510438CAF836
:104990008010CAF80010CAF88010CAF80010CAF8CF
:1049A0008010CAF80010CAF88010CAF80010EDD1C3
:1049B0004FF48070CAF804004FF400715FFA8CF075
:1049C0004AF87C1CBDE8F0874FF48052CAF880207A
:1049D000CAF80020AEF10306032D13D34FF4805321
:1049E000043ECAF88030CAF80030CAF88030CAF8ED
:1049F0000030CAF88030CAF80030CAF88030CAF8EF
:104A00000030EDD14FF48072CAF804200C684FF0EA
:104A1000010C61026208A3084AF87C1C4FF4805123
:104A200052025B02CAF88010CAF800104AF87C2CC7
:104A3000CAF88010CAF800104AF87C3CE3085B0210
:104A4000CAF88010CAF800104AF87C3C23095B02BF
:104A5000CAF88010CAF800104AF87C3C63095B026F
:104A6000CAF88010CAF800104AF87C3CA3095B021F
:104A7000CAF88010CAF800104AF87C3CE3095B02CF
:104A8000CAF88010CAF800104AF87C3C230A5B027E
:104A9000CAF88010CAF800104AF87C3C40F2FF13B4
:104AA00024EA0303CAF88010CAF800104AF87C3CD4
:104AB000A30A5B02CAF88010CAF800104AF87C3CCE
:104AC000E30A5B02CAF88010CAF800104AF87C3C7E
:104AD000230B5B02CAF88010CAF800104AF87C3C2D
:104AE000630B5B02CAF88010CAF800104AF87C3CDD
:104AF000A30B5B02CAF88010CAF800104AF87C3C8D
:104B0000E30B5B0204EB5402CAF88010CAF80010F1
:104B10004AF87C3C230C02EB94025B0202EBD402C9
:104B2000CAF88010CAF800104AF87C3C630C02EB0B
:104B300014125B0202EB5412CAF88010CAF800107B
:104B40004AF87C3CA30C02EB94125B0202EBD412F9
:104B5000CAF88010CAF800104AF87C3CE30C02EB5B
:104B600014225B0202EB5422CAF88010CAF800102B
:104B70004AF87C3C230D02EB94225B0202EBD42228
:104B8000CAF88010CAF800104AF87C3C630D02EBAA
:104B900014325B0202EB5432CAF88010CAF80010DB
:104BA0004AF87C3CA30D02EB94325B0202EBD43258
:104BB000CAF88010CAF800104AF87C3CE30D02EBFA
:104BC00014425B0202EB5442CAF88010CAF800108B
:104BD0004AF87C3C230E02EB94425B0202EBD44287
:104BE000CAF88010CAF800104AF87C3C630E02EB49
:104BF00014525B0202EB5452CAF88010CAF800103B
:104C00004AF87C3CA30E02EB94525B0202EBD452B6
:104C1000CAF88010CAF800104AF87C3CE30E02EB98
:104C200014625B0202EB5462CAF88010CAF80010EA
:104C30004AF87C3C230F02EB94625B02CAF88010B6
:104C4000CAF8001002EBD4624AF87C3C630F02EB16
:104C500014725B02CAF88010CAF800104AF87C3C53
:104C600002EB5472A30F5B0202EB9472CAF880103D
:104C7000CAF800104AF87C3CE30F02EBD4725B02E6
:104C80005202CAF88010CAF800104AF87C3CCAF8F0
:104C90008010CAF800104AF87C2CCAF88010CAF8B4
:104CA0000010000624D42AE04FF48051CAF8801086
:104CB000CAF80010AEF10301032C13D34FF4805354
:104CC0000439CAF88030CAF80030CAF88030CAF80F
:104CD0000030CAF88030CAF80030CAF88030CAF80C
:104CE0000030EDD14FF48071CAF80410000606D5EB
:104CF00041F20400CEF200000068C9F8080099F8FB
:104D00000C30CBB300204AF87C0C13F00307A3F15E
:104D1000010011D04FF48056012F0146CAF880607F
:104D2000CAF8006011D0022FCAF88060CAF800608B
:104D300004D1991E09E000BF194606E04FF48051E6
:104D4000CAF88010CAF80010D91E032814D34FF4F3
:104D5000805000BF0439CAF88000CAF80000CAF8C1
:104D60008000CAF80000CAF88000CAF80000CAF83B
:104D70008000CAF80000EDD14FF400715FFA8CF0AA
:104D80004AF87C1CBDE8F08770B540F69001C1F28E
:104D9000000100220A70A8B14FF67C04C1F2004461
:104DA000A16844F6E950C1F20040884700281CBFC2
:104DB000002070BD21690220884798B1E0688047D3
:104DC000002070BD4FF67C00C1F20040866AD0E939
:104DD000034516200021B04719200021B0470020CC
:104DE000A847A047012070BDF0B581B040F69005FE
:104DF00004468007C1F2000539D541F20400CEF225
:104E00000000006828626E69E8682969084400F0BB
:104E10003F01871B01F5FE529742E860E86103D924
:104E20000320687010E000BF4FF67C02C1F2004220
:104E300040F699136FF35F309269C1F20003C1F13C
:104E4000400118442961904701202871A878022860
:104E50000DD16FF35F26C6F50070874207D340F689
:104E60000400C1F200000068012106F0DDFBA0068D
:104E700005D5A8792844C17941F08001C17114F4A5
:104E8000607F05D0A8792844C17941F04001C17103
:104E900001B0F0BD2DE9F04149F2806440F6900682
:104EA000C0F29804C1F200064FF67C08A04238BF59
:104EB00004467078C1F20048D8F82850C00710D0D6
:104EC00016200021A847D8F82C008047800708D575
:104ED000D8F824008047F1680844F06019200021C8
:104EE000A847012021460127A84728B100242046D1
:104EF0003470BDE8F08100BF70783770C10714D0FE
:104F000080070FD4F06840F6991300F03F016FF36B
:104F10005F30D8F81820C1F20003C1F140011844F5
:104F20003161904716200121A8472046BDE8F08155
:104F300070B5B8B140F69000C1F2000001780129C7
:104F40000DD14FF67C040121C1F20044A269016138
:104F500040F69910C1F2000001219047E0B1002015
:104F600070BD00BF4FF67C05C1F20045D5E90A4689
:104F700016200021A047B047800715D5686A8047F2
:104F800040F69001C1F20001CA681044C8601920BF
:104F90000021A04708E000BFA26A16200121904727
:104FA00000281CBF002070BD012070BD4FF67C039F
:104FB000C1F2004340F690029B69C1F20002116108
:104FC000184700BF10B54FF67C04C1F20044E06AF8
:104FD000804780075CBF002010BD606ABDE81040BC
:104FE000004700BF40F69002C1F200025378DB0791
:104FF0000AD1007802289ABF90700022FF224FF059
:1050000001100A70704700BFFF224FF001100A70B4
:10501000704700BFF0B581B040F69005C1F20005C1
:10502000EA780778012A0C4602D10020FFF7ACFE8F
:105030004FF0000667B1012F06D101200127FFF7CD
:10504000A3FE08B1002105E0FF21002702E000BF18
:1050500000270021EF706E704FF00110217001B039
:10506000F0BD00BFB0B540F69005C1F20005EA788A
:105070000C46012A08D10068FFF70CFF014618B161
:105080004FF004102160B0BD002169704FF0041092
:105090002160B0BD70B540F69006C1F20006007800
:1050A000727800F0010502F0010085420C4605D13E
:1050B00000214FF00110217070BD00BF7DB1B078AC
:1050C000022805D1707918B1FBF7D4F9002070716E
:1050D00000203072F080F0607061F0613062F07832
:1050E000012815D12846FFF723FF88B1B0787570E5
:1050F0000228DDD140F60400C1F200000068012161
:1051000006F092FA00214FF00110217070BD00BF2F
:10511000FF214FF00110217070BD00BF2DE9F04359
:1051200081B040F69007C1F200070446B87997F8BD
:10513000019080F00101384490F80780B971002196
:10514000B9F1010FC17113D1F878012814D10120F0
:10515000002500BF3D71F9687A690128A1EB0206BC
:1051600002D1FFF72FFF06443879E8B1F878F1E76C
:10517000F8687969461A17E0002000BF3871F968AD
:105180007A693B797BB13871F9687A693B7953B1B7
:105190003871F9687A693B792BB13871F9687A69A5
:1051A0003B79002BEAD18E1A48EA09002070300AB8
:1051B000A070300C310E6670E0700520217101B0D6
:1051C000BDE8F0832DE9F04790F800A088464FF045
:1051D00000095FEACA700E460AD15FEA8A701ED4DF
:1051E0005FEA4A7060D409F58030BDE8F08700BFFF
:1051F00040F69000C1F200008179427881F001030D
:105200000144CF79837147EA0200464681F807904E
:1052100006F8010B4FF001095FEA8A70E0D540F60D
:105220009004C1F200046078012813D1E0780128CD
:1052300014D10120002500BF2571E16862690128B1
:10524000A1EB020702D1FFF7BDFE07442079E8B1C8
:10525000E078F1E7E0686169471A17E0002000BFD5
:105260002071E168626923797BB12071E16862692C
:10527000237953B12071E168626923792BB12071E0
:10528000E16862692379002BEAD18F1A380A08F89D
:1052900009707070380CB070380EF070043609F177
:1052A00004095FEA4A709ED540F69001C1F2000100
:1052B000002200BF0A71CB69086A0F797FB10A71B9
:1052C000CB69086A0F7957B10A71CB69086A0F79FF
:1052D0002FB10A71CB69086A0F79002FEAD1190A38
:1052E0007170190CB170190EF170010A3071717181
:1052F000010C000E09F104093370B171F07109F568
:105300008030BDE8F08700BF2DE9F04381B040F662
:105310009006C1F200068046B0790C4680F001028A
:1053200030447178C379B27143EA0109002201293E
:10533000C27113D1F078012824D10120002700BFC9
:105340003771F16872690128A1EB020502D1FFF7FC
:1053500039FE0544307920B1F078F1E7F0687169E1
:10536000451AB0785FFA89F1012828D1B8F80070A1
:10537000B7F5FE7F28BF4FF4FE77BD4298BF2F469A
:105380001EE000BF002000BF3071F1687269337900
:105390007BB13071F1687269337953B13071F16862
:1053A000726933792BB13071F16872693379002BEE
:1053B000EAD18D1AB0785FFA89F10128D6D000279A
:1053C0002170390A01286770A17075D1D6F8148050
:1053D000002F55D040F69911A7F1010E17F00305E3
:1053E000C1F200010ED043466FF35F33581CCB5C13
:1053F000012DE3700ED104F1040C7546BEF1030FCC
:1054000023D23DE004F1030C40463D46BEF1030FBC
:105410001BD235E06FF35F30431C085C022D207116
:1054200008D104F1050CBD1E1846BEF1030F0CD2C5
:1054300026E000BF6FF35F33CA5C581C04F1060C12
:105440006271FD1EBEF1030F1AD3ACF1040300BF5D
:1054500002466FF35F328A5C441C03F8042F6FF33B
:105460005F340A5D841C5A706FF35F340A5DC41C9C
:105470009A706FF35F340A5D601C043DDA70E7D107
:1054800008EB070070617078032815D1F068716926
:105490000022411AB2EB513F0ED1F17801290BD114
:1054A0000121717040F699116FF35F30C1F2000174
:1054B00008440121FFF77AFDF81C40F4003001B0E8
:1054C000BDE8F08380B540F69000C1F2000081692C
:1054D000426911440022416142714178032914D18B
:1054E000C1684369CB1AB2EB533F0ED1C278012A8F
:1054F0000BD10122427040F699106FF35F31C1F277
:10550000000008440121FFF751FD40F60400C1F2FC
:10551000000000680121BDE8804006F085B800BFAA
:1055200040F6900540F6991A4FF0FF344FF001080D
:105530000027C1F20005C1F2000A15E069690846BA
:105540006FF35F30C0F50052964288BF164619F1DE
:10555000020218BFBBF1000F48D150443146AE6182
:1055600085F80580FAF780FF01200021224606F029
:1055700087F869786A7911F0010B4FF0320408BF9F
:105580004FF0FF34002AEFD18146012928D1E87875
:1055900001280FD1012000BF2F71E9686A69012835
:1055A000A1EB020602D1FFF70DFD06442879D0B128
:1055B000E878F1E72F71E86869692A7992B12F716B
:1055C000E86869692A796AB12F71E86869692A7996
:1055D00042B12F71E86869692A79002AEAD101E0AD
:1055E000E8686969461A002EA8D1BDE76FF35F210C
:1055F00031B1C1F500718E420E46B5D3ADE700BFA3
:1056000016F47856A9D1AFE72DE9F04700780C469B
:10561000022817D0012841D0002840F0028140F232
:105620002C06C1F20006307802284BD0012800F089
:10563000818000280CBF0025FF254FF00110257048
:10564000BDE8F08740F22C05C1F200052878022859
:1056500000F0A180012877D0002840F0E28040F6D9
:10566000B4004FF64406C1F200000021C1F200462A
:10567000017001714180417041718171016141612D
:105680008160C160B268816145F61950C1F2004085
:105690009047002840F0C58076E000BF40F22C051E
:1056A000C1F20005287802287CD0012873D0002898
:1056B00040F0B78001200126FAF7E0FE002840F014
:1056C000B08067E040F6B40AC1F2000A9AF803001D
:1056D0004FF644080128C1F200480BD1D8F82850F1
:1056E000162000214FF00009A84719200021A847E3
:1056F0008AF803909AF8040001280DD1D8F82850B0
:10570000182000214FF00009A84715200021A847C4
:105710008AF802908AF80490D8E9037100250020E5
:105720008AF800508847B84735704FF0011025704F
:10573000BDE8F08700200025FAF7A0FE35704FF095
:1057400001102570BDE8F08700200027FAF796FECB
:1057500040F6B4004FF64406C1F20000C1F2004624
:105760002F70077007714780477047718771076115
:1057700047618760C760B168876145F61950C1F21B
:105780000040884700284CD1316902200226884712
:10579000002846D12E7000254FF001102570BDE87D
:1057A000F08700BF40F6B409C1F2000999F8030080
:1057B00001280ED14FF64400C1F20040876A16203E
:1057C00000214FF00008B84719200021B84789F898
:1057D000038099F80400012810D14FF64400C1F26B
:1057E0000040876A182000214FF00008B8471520B4
:1057F0000021B84789F8028089F804804FF64400F8
:10580000C1F20040D0E903610027002089F8007050
:105810008847B04701202F700126FAF72FFE002895
:10582000B8D0FF254FF001102570BDE8F08700BF0C
:10583000B0B540F22C02C1F2000212780C46022AE6
:1058400020D10178D0F801504FF64400C1F2004059
:10585000826A41F0010029469047B8B140F6B4038E
:1058600000F10B02C1F200030021032A197017D8BE
:105870000020DFE802F003191D1F00BF04212846A5
:1058800018E000BF0020072114E000BF40F6B4007C
:10589000C1F2000001210170002128460AE000BF8A
:1058A0000020072106E000BF0221284602E000BFD9
:1058B000012128462170010AA170010C6070E1707D
:1058C000010E4FF005102171B0BD00BF2DE9F0436E
:1058D00081B040F22C02C1F2000212788946022AFD
:1058E00006D10578A80705D4E8071BD100263DE0BE
:1058F000FF2695E040F6B408C1F2000898F80300CE
:105900000026012832D14FF64400C1F20040876AD8
:1059100016200021B84719200021B84788F80360F5
:1059200024E000BF40F6B407C1F200073878012830
:105930001BD1F8780026C8B9BE60FE60B8684FF683
:10594000440144F608226FF39F20C1F20041C1F2E6
:10595000000210448A698E6A202190471620012196
:105960004FF00108B04700287AD0FF2668071ED5FF
:105970004FF64408C1F20048D8F828201920002129
:105980000027904740F6B400C1F200008760C7606E
:10599000C17801290BD1806844F608216FF39F205C
:1059A000D8F81820C1F20001084420219047A80629
:1059B0001CD4E80632D540F6B407C1F200073878A7
:1059C000012811D1387948BB4FF64401C1F200419A
:1059D00000208A6AB87038617861B86115200121A9
:1059E0004FF001089047B8B1FF2617E040F6B40722
:1059F000C1F200073879012810D14FF64400C1F2F6
:105A00000040846A182000214FF00008A0471520AC
:105A10000021A04787F8028087F80480680607D431
:105A20004FF0011089F8006001B0BDE8F08300BFBD
:105A30004FF64400C1F20040826A18200021002481
:105A4000904740F6B400C1F20000847004614461E4
:105A500084614FF0011089F8006001B0BDE8F08367
:105A600087F8038042E700BF2DE9F04140F22C01A6
:105A7000C1F200010978044602294FF000083BD129
:105A800040F6B407C1F200073878012838D14FF644
:105A90004405C1F20045B868F9686A6A461A904739
:105AA0000644B6F5707F07D901207870B8684FF4C6
:105AB0007076A0F57070F860386979692A6A451ABD
:105AC00090477A78BB78F978002B18BF2D1A002AF6
:105AD0001EBF002078700231787900281EBF002098
