:020000040000FA
:1000000000300320150200004D02000051020000E4
:1000100049020000490200004902000049020000B4
:100020000000000000000000000000005504000077
:100030004902000000000000F50400000505000072
:100040006102000065020000690200006D0200000C
:100050007102000075020000790200007D020000BC
:100060008102000085020000890200008D0200006C
:100070009102000095020000990200009D0200001C
:10008000A1020000A5020000A9020000AD020000CC
:10009000B1020000B5020000B9020000BD0200007C
:1000A000C1020000C5020000C9020000CD0200002C
:1000B000D1020000D5020000D9020000DD020000DC
:1000C000E1020000E5020000E9020000ED0200008C
:1000D000F1020000F5020000F9020000FD0200003C
:1000E0000103000005030000090300000D030000E8
:1000F00011030000150300001903000051950000D2
:100100002103000025030000290300002D03000047
:100110003103000035030000390300003D030000F7
:100120004103000045030000490300004D030000A7
:1001300000000000000000000000000000000000BF
:1001400000000000000000000000000000000000AF
:10015000000000000000000000000000000000009F
:10016000000000000000000000000000000000008F
:10017000000000000000000000000000000000007F
:10018000000000000000000000000000000000006F
:10019000000000000000000000000000000000005F
:1001A000000000000000000000000000000000004F
:1001B000000000000000000000000000000000003F
:1001C000000000000000000000000000000000002F
:1001D000000000000000000000000000000000001F
:1001E000000000000000000000000000000000000F
:1001F00000000000000000000000000000000000FF
:10020000DFF80CD000F026FA0048004741AB0000B0
:100210000030032072B60748074901600A6882F37C
:100220000888064880F30A880548804762B6054872
:10023000004700BF08ED00E000000000002C032094
:10024000817B000001020000FFF7FEBF404800472D
:100250004048004740480047404800474048004762
:100260004048004740480047404800474048004752
:100270004048004740480047404800474048004742
:100280004048004740480047404800474048004732
:100290004048004740480047404800474048004722
:1002A0004048004740480047404800474048004712
:1002B0004048004740480047404800474048004702
:1002C00040480047404800474048004740480047F2
:1002D00040480047404800474048004740480047E2
:1002E00040480047404800474048004740480047D2
:1002F00040480047404800474048004740480047C2
:1003000040480047404800474048004740480047B1
:1003100040480047404800474048004740480047A1
:100320004048004740480047404800474048004791
:100330004048004740480047404800474048004781
:100340004048004740480047404800474048004771
:100350004D0200005102000055040000F5040000A9
:100360000505000049020000D52E000049020000EA
:100370004902000049020000490200004902000051
:100380004902000049020000490200004902000041
:10039000490200004902000049020000F139000052
:1003A000213A0000513A0000813A0000B13A0000C1
:1003B000E13A0000113B0000413B0000490200000F
:1003C0004902000049020000490200004902000001
:1003D00049020000490200004902000049020000F1
:1003E00049020000490200004902000049020000E1
:1003F00049020000490200004902000049020000D1
:1004000049020000490200004902000049020000C0
:1004100049020000490200004902000049020000B0
:1004200049020000490200004902000049020000A0
:100430004902000049020000490200004902000090
:10044000490200004902000049020000E12E0000BC
:10045000713B00001EF0040F0CBFEFF30880EFF3B8
:100460000980816911F8021C002935D101B590E895
:100470000F10E047BDE800508CE80300254B93E8DF
:100480000600914208BF70471A6041B91EF0100F74
:1004900010D1214B186820F0010018600AE02CE907
:1004A000F00F1EF0100F08BF2CED108AC1F838C0F5
:1004B00081F822E0906B116B81F30B8892F8221087
:1004C00061F0FF0E1EF0100F08BFB0EC108AB0E80C
:1004D000F00F80F309887047104A13689942FAD8E0
:1004E00001B552F821C00FC8E047BDE80050CCF874
:1004F0000000704701B50AF0CFFDBDE80140EFF301
:10050000098CBBE701B50BF02DF8BDE80140EFF316
:10051000098CB3E74400002034EF00E0F8FF00004E
:100520002DE9F05F0546002092469B468846064628
:10053000814640241BE0284641464746224600F0BB
:1005400079F853465A46C01A914110D311461846BD
:10055000224600F060F82D1A67EB01084F4622464C
:100560000120002100F057F817EB00094E41201E32
:10057000A4F10104DFDC484631462A464346BDE883
:10058000F09F40EA01039B0703D009E008C9121F4E
:1005900008C0042AFAD203E011F8013B00F8013B3D
:1005A000521EF9D27047D2B201E000F8012B491E69
:1005B000FBD270470022F6E710B513460A46044600
:1005C0001946FFF7F0FF204610BD421C10F8011B32
:1005D0000029FBD1801A7047034611F8012B00F85F
:1005E000012B002AF9D11846704720F00040C20DB7
:1005F000C0F3160040F400007F2A02DA0020014612
:1006000070470021962A03DCC2F19602D040704761
:10061000963AAFF30080202A04DB203A00FA02F178
:10062000002070479140C2F1200320FA03F31943E0
:1006300090407047202A04DB203A21FA02F0002182
:10064000704721FA02F3D040C2F1200291400843E2
:1006500019467047064C074D06E0E06840F001037C
:1006600094E8070098471034AC42F6D3FFF7CCFD6E
:10067000740D0100940D010030B58C1810F8012B99
:1006800012F00F0301D110F8013B120906D110F846
:10069000012B03E010F8015B01F8015B5B1EF9D14F
:1006A00001E001F8013B521EFBD1A142E6D300203C
:1006B00030BD00002DE9F04389B0C826C4F202061F
:1006C0002020306041F60030C0F2B70000F09CFC02
:1006D00049F20818C0F21008404600F02BF94DF618
:1006E0000000C0F2B85000F08FFC4FF48070306012
:1006F0004FF48010306042F20040C0F2F40000F08D
:1007000063FC40F61820C4F2000001684DF2801925
:1007100041F02001016043F22000C4F201000168B1
:10072000C0F6F00941F080710160016841F40001F8
:100730000160484604F0E0FE484600F0EDFA4FF450
:10074000037000F0F7F84FF4007030604FF40000D1
:1007500030604FF6FC50C0F2000090E84E00D0E947
:100760000447D0E906500DF1040C8CE84E00CDE9A9
:100770000547CDE9075001A800F060FB08200021E3
:10078000002200F0ADFA0B200021002200F0A8FAB0
:1007900020200121002200F0A3FA222000210122C2
:1007A00000F09EFA22200221002200F099FA08F5BA
:1007B000801000F0BFF840F2144000F0BBF840F2A7
:1007C000174000F0B7F840F22800C2F20000C0F86D
:1007D000009009B0BDE8F083FFF76CBF04F038BDAE
:1007E0004FF6EC40C0F20000446AC56A40F22C2685
:1007F00047F67058C2F20006C2F2000803E000BFDC
:100800000A200AF0B1F9A8478007F9D5F768A04790
:1008100031693844421AB2F5F07F07DBF0684FF4D3
:10082000F072A0F5F070306102E000BF012AE7DB52
:10083000306931696FF35F20C0F500706FF35F219D
:100840008242C8BF0246414400200BF08FFE0128BF
:10085000D6DB316908443061D2E70000F0B581B0E1
:100860004FF6EC46C0F20006B76A04461820002195
:100870000025B84719200021B84715200021B847A6
:1008800016200021B84794F90400022819D894F9D9
:100890000510022918D8A279053AD3B2032B13D830
:1008A0001AA353F820001CA352B253F821101DA321
:1008B00053F82220084321681043B8474FF0000541
:1008C00030B1284601B0F0BD0025284601B0F0BD8A
:1008D000D4F80300216840F22C22C2F20002C2F8D0
:1008E0001700516115200121D56015610125B84718
:1008F00016200121B847B26947F67050C2F20000D5
:100900004FF400719047284601B0F0BD0000000090
:1009100000800000004000000000000000200000F7
:1009200000100000010500000106000001070000A2
:100930000100000040F00041B1F1004F08BF7047D6
:10094000010513D0C0F30321C2B201393F2AC9B255
:1009500006D19822C4F2020213681943116005E01F
:1009600040F26023C4F2000343F822100021B1EBEF
:10097000103F1EBF4FF20001C0F2FF0111EA00015B
:1009800000D17047C0F30351000B4A1EC1B23F298A
:10099000D0B207D19821C4F202010A68104308605E
:1009A000704700BF40F26022C4F2000242F821000A
:1009B0007047000040F22820C4F20000402101608E
:1009C00020210160D0F8F01741F02001C0F8F017A5
:1009D00043F22001C4F20101086840F40002012042
:1009E0000A60704781B0C822C4F202024FF48070DE
:1009F00010604FF4801010604020106080204FF491
:100A00008053106013604FF48023136048F2A0629B
:100A1000C0F20102009200BF009A531E00930AB177
:100A200000BFF9E740F22822C4F200024FF0006351
:100A30001360106043F60002C1F69C42B2FBF1F273
:100A40006FF00E0348F2A40113FA82F24FF0004057
:100A5000C4F2030141F86C0C192A4FF000003FD892
:100A6000DFE802F0240E3E3E3E123E3E3E16223E9F
:100A70003E3E3E1A3E3E3E3E3E3E3E3E3E1E00BF97
:100A80004FF4800012E000BF4FF400000EE000BF02
:100A90004FF080700AE000BF4FF0C07006E000BF6A
:100AA0004FF0E07002E000BF4FF0A07051F8042C4E
:100AB00022F0E072104341F8040C4FF4001008607B
:100AC0004FF4803048604FF4805008604020086048
:100AD0004FF0804041F86C0C002041F8A00C012040
:100AE00001B0704740F28020C4F200004168032941
:100AF00084BF00207047DFE801F003171D2300BF0B
:100B0000016889B3016801293CD143F21000C4F2A5
:100B1000010040F2D4010069C2F200010968C0017D
:100B200001EAE070704700BF40F2E820C2F2000026
:100B30008068704740F2E820C2F20000C068704749
:100B40009820C4F20200016A490605D40168C90769
:100B500004BF4FF400407047016A09064FBF0020F0
:100B60000068C00380B2704743F21000C4F2010075
:100B7000006841F600314004C0F2B70101EAE070BC
:100B8000704700BF016802290AD1D0F8980744F2E3
:100B900040214006C0F20F0101EAE070704700BF3B
:100BA000006803281CBF0020704743F21000C4F205
:100BB000010000684DF600014000C0F2B85101EAA2
:100BC000E070704710B5044600F014F840F2203190
:100BD000C4F2000151F8242051F82410012353FAE3
:100BE00081F102F47F42B2FBF1F10131B0FBF1F08F
:100BF00010BD000040F2B021C4F2000151F82020E5
:100C0000072A61D80FF20A0000EB82030020DFE818
:100C100002F0050715233741471300BFFFF762BFF6
:100C200040F2E820C2F200008068D1F814110122DD
:100C300052FA81F1B0FBF1F0704700BF43F21000AF
:100C4000C4F20100006841F600314004C0F2B7016F
:100C500001EAE070704700BF43F21000C4F20100E7
:100C600000684DF600024000C0F2B852D1F8D8102A
:100C700002EAE070012252FA81F1B0FBF1F0704714
:100C8000D1F8680744F240214006C0F20F0101EAA2
:100C9000E070704740F2E820C2F200004068704700
:100CA0009820C4F20200016A490605D40168C90708
:100CB00004BF4FF400407047016A09064FBF00208F
:100CC0000068C00380B2704740F2112040F2D11199
:100CD000C0F20100C0F2010140F2493209F0F0FD1A
:100CE00000F0F803082B40F20033C4F2000305D1F2
:100CF000FF2261F30F2243F820207047002A1CBF17
:100D00004FF0005243F820204A1E002908BF4FF040
:100D1000804243F8202070474DF6C101C0F2A70180
:100D2000884201D2002157E04BF28111C0F24F11ED
:100D3000884201D201214FE048F64121C0F2F7116B
:100D4000884201D2022147E046F20131C0F29F21E0
:100D5000884201D203213FE043F6C131C0F247315E
:100D6000884201D2042137E041F28141C0F2EF31E3
:100D7000884201D205212FE04EF64151C0F2964142
:100D8000884201D2062127E04CF20161C0F23E51B7
:100D9000884201D207211FE04EF20111C0F2F55145
:100DA000884201D2082117E04CF2C121C0F2DA6179
:100DB000884201D209210FE04AF28141C0F2BF719D
:100DC000884201D20A2107E04DF28112C0F6F002FA
:100DD0000C21904238BF0B2144F6E872C4F20302A2
:100DE0001F2344F6E07013604FF2A002C4F2030028
:100DF000CFF6FF72835823F00F030B4483504FF25A
:100E00002002CFF6FF72022383500268520709D4F2
:100E1000026852075CBF02685FEA427202D402684D
:100E20005207F2D540F20040C4F20000026822F4FA
:100E3000704242EA0131016070470000B0B540F2F3
:100E4000980CC4F2020C4FF4007E4FF40003CCF86F
:100E500028E0CCF82830D0E90012044640F2845053
:100E6000C4F20000A56840F8041C42F4807142609E
:100E7000416045F02001856081602169C160616940
:100E80000161616941F0806141F002010161CCF8CA
:100E900030E0CCF83030217F890740F18D80016946
:100EA0004FF60042C0F2FF32114223D04FF60C51F0
:100EB000CFF6FF71415801F00703032B54D841F6D8
:100EC0000032C0F2B702DFE803F045031F2D00BF78
:100ED00043F22001C4F2010140F2D4020968C2F2D7
:100EE00000021268C90102EAE17250F8041C090309
:100EF00034D53EE04DF28011C0F6F00141F2707041
:100F000004F058FB58E000BFD0F8941444F240229B
:100F10004906C0F20F0202EAE17250F8041C09030C
:100F20001CD526E0DCF8201049060BD4DCF80010B4
:100F3000C90707D14FF4004250F8041C09030DD52E
:100F400017E000BFDCF8201009060DD4DCF8001013
:100F5000C9038AB250F8041C09030AD44168C9B213
:100F6000002908BF012105E0002250F8041C0903F4
:100F7000F4D50121B2FBF1F14AF26062A1F5C03172
:100F8000A1F5D461C0F22F1291420DD80168C907B2
:100F900012D10168C90704BF01685FEAC1710BD1B2
:100FA0000168C907F2D007E04DF28011C0F6F001E8
:100FB00041F2707004F0FEFAA16940F2E822C2F238
:100FC000000200209160B0BD44F60001C0F2E811BB
:100FD000884284BF01207047C821C4F202014FF447
:100FE00080720A604FF480120A6040F61821C4F241
:100FF00000010A6842F020020A6040F2D401C2F205
:10100000000108600020704741F60031C0F2B701CE
:101010004DF6000C8842C0F2B85C18BF604507D09E
:1010200046F60042C0F2DC2290421CBF012070470D
:1010300040F24812C4F200024FF000631360C2F89D
:10104000E030C822C4F202022023136043F21002EF
:10105000C4F2010213684FF48041604508BF4FF0AD
:10106000804143EA0100106000207047F0B581B074
:1010700002787F2A18D17F220A7047784F70CFB14B
:101080008D1C861C4FF0021430462946013F00F0AB
:1010900017F806EB104615FA80F5002F0444F3D13B
:1010A000204601B0F0BD00BF01B0BDE8F04000F047
:1010B00007B800BF4FF00214204601B0F0BD000099
:1010C0002DE9F04F89B0814690F900000D46B0F14E
:1010D000FF3FC0B208DC9F2806D84846294609B021
:1010E000BDE8F04F01F050BEAA460AF8010B4E468B
:1010F00016F8010B232800F2AD82DFE810F025007E
:1011000045005B006F009900A9005702AB02B302D3
:10111000D102E502AB02AB02AB02AB02AB02EF02C3
:101120002D0341035D036B03A303BB03DF03E9034B
:10113000F303FD03070411041B046D047704810409
:101140008B0495049F0400BF3078AC1CA0F1F00222
:101150000F2A4FF0000101F21780DFE812F04F096B
:101160005309720B720B720B720B720B720B720BB8
:10117000720B720B1100110059095F09630900BF5E
:101180004FF4806001F046B93078012800F08F827A
:10119000002840F0778499F802002021C0074EF221
:1011A0000010C4F208000CBFC0F80011C0F8801194
:1011B0007DE200BF3078002808BF0120022800F03F
:1011C0006384012840F08E8440F26021C2F2000165
:1011D00001200871022100F067BC00BF40F26020CE
:1011E000C2F20000002101714EF20010C4F20800AA
:1011F00001264FF08052C0F80063C0F8802104221D
:10120000C0F800234FF40052C0F880214FF40022B0
:10121000C0F800230222C0F800230822C0F80023EF
:101220008AF8001006F1011009B0BDE8F08F00BF88
:1012300099F8010040F26021C2F200010874B9F887
:1012400002008882B9F80400C882002001F05FB86B
:1012500040F2602BC2F2000B9BF80400022800F061
:101260004B84012840F038864FF000088BF800804E
:1012700099F80230E81C0790002B09F103074FF0A2
:10128000000001F0448504904FF0000E0020002182
:101290009846B9460691059319F8014BA10713D456
:1012A000BEF1000F52D00397BBF814700E2008A9AE
:1012B00004F010FAC7B3022836D19BF80000013FB2
:1012C0000028F3D001F0BAB8BEF1000F2AD003977E
:1012D000BBF8147004F011000128029010D10137FE
:1012E000204608A904F0F6F902285FD1013F01F079
:1012F000A5809BF800000028F2D001F09FB800BF45
:101300000E2008A904F0E6F9002F4FF0000E4FD090
:1013100002284DD19BF80000013F0028F0D001F0D9
:1013200073B900BF002368E0012841F00585DDE9BD
:10133000071008700898000A4870BDF822008870ED
:101340009DF82300C870081D0790039FD7F801007F
:10135000A10607F10509089010D4BBF814702046C7
:1013600008A904F0B7F97FB102280DD19BF800005D
:10137000013F0028F3D001F047B900BFCBF81800B7
:101380004FF0000E0120EAE0012841F0D984200648
:1013900005D5DBF80C00079941F8040B07914FF0D5
:1013A000000E012001210491D9E000BF4FF0010E91
:1013B000012841F02C81DDE90710029B039F0A1DE3
:1013C00008700898012B4FEA10204870BDF82200E1
:1013D00088709DF82300C8700CD1200604D5DBF876
:1013E0000C0001F10802486000210120012307924E
:1013F00004E000BF0023012007920121E2060393CD
:1014000014D45F46BBF814B0E2072BD1204608A9DC
:1014100004F060F9BBF1000F38D0022836D13878DB
:10142000ABF1010B0028F1D001F084BAD7F801002C
:1014300007F105090290BBF816000190E0074ED0B5
:10144000BBF814702046002104F044F9002F41D06D
:1014500002283FD19BF80000013F0028F2D001F0A4
:101460000FBB00BF002975D02046002104F032F9DF
:10147000BBF1000F00F08480022840F081803878B2
:10148000ABF1010B0028EFD001F054BA012841F074
:10149000528207992006BB46DDF80CE044BFDBF81A
:1014A0000C0041F8040B0898059B01F8040B089800
:1014B0000A46000A01F8030CBDF82200079101F862
:1014C000020C9DF8230001F8010C0020049001207B
:1014D00046E000BFDDF80CE0012841F09880BBF841
:1014E0001470204608A904F0F5F83FB1022805D190
:1014F0009BF80000013F0028F3D017E0012816D127
:10150000019BDDF80CE04FF0010093B10899DBF886
:1015100018201140029A91420BD09BF80000013B29
:1015200000280193DBD0012001E000BF0220DDF89C
:101530000CE00899DBF818201140029A914218BF7C
:1015400040F01000012841F062800020049001204A
:1015500005E000BF002104914FF0010EBB46059B42
:101560009BF800100029069901F10101069141F054
:101570004E80B8F101084F467FF48EAE01F0C2BB39
:10158000012841F0D881200604D4002004900120D5
:10159000E2E700BFF8680799BB4641F8040B00205A
:1015A0000791049001204FF0010ED8E740F2602728
:1015B000C2F200073879022800F0AE84012840F01A
:1015C000078500223A70B9F8021005F1040B0029D2
:1015D00000F0D68599F80440A00700F1FB860020B2
:1015E0000DF12008CDF814B00790049156F8040FBF
:1015F000BB46BF8A0139069108902046414604F057
:1016000069F84FB1022807D19BF80000013F00287C
:10161000F3D000F00DBF00BF0699012840F0098704
:101620000798002900F101005F460790DED1B88AD3
:10163000441C0E20002104F04DF8022841F085835F
:10164000013C01F08183387800284FF00200F0D08F
:1016500001F07BBBFF2028704FF0011009B0BDE8FE
:10166000F08F00BF40F26020C2F200000179022931
:1016700000F0B684012940F0C384D9F802000126A5
:10168000089008A90020C0F20506002404F022F802
:101690008AF8004006F1011009B0BDE8F08F00BFE4
:1016A000B9F80100322100FB01F0401EFDD10020FD
:1016B0008AF800000120C0F20500A0F5403606F1CE
:1016C000011009B0BDE8F08F0020A5F80100022646
:1016D00006F1011009B0BDE8F08F00BF99F80230A3
:1016E00099F80160D9F803104EF2001B13F00100C5
:1016F000C4F2080B07D0F2074FF001020CBFCBF881
:101700008021CBF8002113F0020907D0B7074FF072
:10171000040754BFCBF88071CBF8007113F00405B7
:101720004CF2010CC4F2080C1CBFB7088CF8007016
:1017300013F08002079200F04785370600F13A85E2
:101740004FF40027CBF88071CBF880724FF400572C
:10175000CBF8007100F038BDD9F80100002800F086
:10176000798143F26041C0F23C218842C0F04A8452
:1017700040F26021C2F200010120487100F059BC22
:1017800099F8014009F10201002C08BF4FF4807460
:10179000204605F03DF94FF4604101EB4431002053
:1017A0008AF800003FFA81F000F1011606F10110FD
:1017B00009B0BDE8F08F00BF307840F2602200F041
:1017C0000301C0F380000131C2F2000211775077AB
:1017D000002088E100208AF8000096F800A0BAF105
:1017E000000F00F0398109F1020402354FF00108C1
:1017F0004FF0010914F8016B2A4616F03F0000F182
:1018000007004FEAD007304608BF08272146AAF153
:10181000010A02F0AFFE09EB070016F080011CBFC1
:101820003D44B8443C44BAF1000F00F10109E1D154
:101830004FEA094048EA000606F1011009B0BDE888
:10184000F08F00BF96F8008040F2602BC2F2000BD0
:10185000B8F1000F8BF81E8000F08684A8F1010C0F
:10186000BCF1030F08F0030E80F0F6830024002380
:1018700000F016BC40F26020C2F20000017902299B
:1018800040F0E6803178827FC177914280F0E0803D
:101890000E2002F039FC02F0EDFD00216970010A12
:1018A000A870E970010C000E052629716871C0F25C
:1018B000010606F1011009B0BDE8F08F304651462F
:1018C00005F0B4FC064606F1011009B0BDE8F08F42
:1018D0003046514605F052FB064606F1011009B0AC
:1018E000BDE8F08F3046514605F0C4F8064606F1D3
:1018F000011009B0BDE8F08F3046514605F02CF9D3
:10190000064606F1011009B0BDE8F08F504605F01B
:1019100097FB064606F1011009B0BDE8F08F00BF45
:101920003046514605F09AF9064606F1011009B015
:10193000BDE8F08F00208AF800003678002E00F015
:1019400097804EF2001B09F1020402354FF00108A6
:10195000C4F2080B012705E007EB09004C44471CC3
:10196000013E31D014F8010B10F03F0101F10701E5
:101970004FEAD10908BF4FF0080910F0800A07D1DB
:101980000421CBF880124FF08051CBF8001106E013
:101990004FF08051CBF880110421CBF80013214681
:1019A0002A4603F031FE012E06D10420CBF8800236
:1019B0004FF08050CBF80001BAF1000FCCD00137C6
:1019C0004D44C844013ECDD148EA074606F1011016
:1019D00009B0BDE8F08F00BF3046514605F01CFA53
:1019E000064606F1011009B0BDE8F08F30465146B9
:1019F00006F0EAFB064606F1011009B0BDE8F08FDB
:101A00003046514606F06EF9064606F1011009B05F
:101A1000BDE8F08F3046514606F0E0FA064606F182
:101A2000011009B0BDE8F08F3046514606F0A8F924
:101A3000064606F1011009B0BDE8F08F504606F0E9
:101A40006DFA064606F1011009B0BDE8F08F00BF3F
:101A5000FF2048E0FF20F2E24FF001084FF4803011
:101A600048EA000606F1011009B0BDE8F08F00BF9A
:101A700001274FF0010848EA074606F1011009B0B6
:101A8000BDE8F08FFF2013E640F26021C2F20001B2
:101A9000022008714EF20011C4F208010122C1F8BF
:101AA0000021C1F8802208214EF20012C4F208027F
:101AB0000423C2F80001C2F88002C2F80031C2F863
:101AC00080324FF08053C2F800314FF40023C2F847
:101AD0000031C2F880324FF40053C2F80031C2F82E
:101AE000001300E000208AF800004FF0011606F114
:101AF000011009B0BDE8F08F00248BF8004099F880
:101B000001009BF81E1005F1030E88428BF81F00A0
:101B100080F0F68399F8021009F10307002900F01C
:101B20006B850020079005224FF0000C00208946AD
:101B300005900291BB461BF8014B2346A00762F3B8
:101B40005F0323D4BCF1000F6BD00397CDF818E0EE
:101B5000079898460A281CBF0A2002F0D5FA40F2DE
:101B60006020C2F20000878A0E2008A902F07AFDE8
:101B7000E7B302283AD140F26020C2F200000078B8
:101B8000013F0028F0D000F065BE00BFBCF1000F9F
:101B9000049327D040F260200799C2F20000B0F809
:101BA000148081EA030004F01002104300920190B7
:101BB000CDF818E060D1039708F10107204608A985
:101BC00002F050FD022840F08380013F00F044867F
:101BD00040F26020C2F2000000780028EED000F051
:101BE0003BBE00BF04F010009EE000BF012841F0A2
:101BF000AF8043460898DDF818800A2188F8000075
:101C000008980791000A88F80100BDF82200039F98
:101C100088F802009DF8230088F8030008F104000A
:101C20008646D7F8010040F26028A10607F10507B3
:101C3000C2F20008089019D4CDF818E00493079870
:101C4000BB46984202D0049802F05EFAB8F81470CD
:101C5000204608A902F006FD57B3022828D198F8BB
:101C60000000013F0028F3D000F004BFC8F81800BE
:101C70004FF0000C1AE100BF0A291CBF0A2002F035
:101C800043FA0E2008A902F0EDFC0A22B8F1000F79
:101C90004FF0000C20D002281ED140F26020C2F28A
:101CA00000000078A8F101080028EAD000F0F4BE96
:101CB000012841F05980DDF818E02006049944BF5E
:101CC000D8F80C004EF8040B5F464FF0000CECE027
:101CD000039F079A4FF0010C0128079240F0E78616
:101CE0000898DDF818C001998CF800000898B1FA3E
:101CF00081F1000A8CF80100BDF8220049098CF836
:101D000002009DF82310049B0CF104008CF80310D2
:101D100008D0210600F1AE804FF0010C86465F46E8
:101D2000A2E000BF86460098CDF818E040B3D7F88F
:101D30000100B846039040F26020C2F20000B0F803
:101D400016B00798984202D0049802F0DDF940F2EC
:101D50006020C2F20000878A08F1050820460021B1
:101D600002F080FC57B3022828D140F26020C2F272
:101D700000000078013F0028F0D000F085BE00BFD1
:101D80000798984698421CBF404602F0BDF940F2C1
:101D90006020C2F20000878A2046002102F062FC27
:101DA000002F55D0022853D140F26020C2F200002B
:101DB0000078013F0028EFD000F074BE012840F009
:101DC000D78740F26023C2F200039F8A204608A909
:101DD00002F048FC57B1022808D140F26020C2F25C
:101DE00000000078013F0028F0D019E0012818D148
:101DF000BBF1000F4FF00100474667D040F260236F
:101E0000C2F2000308999A691140039A91420DD0D9
:101E10001878ABF1010B0028D7D0012005E000BFF6
:101E2000022040F26023C2F20003474608999A69F3
:101E30004FF0000C1140039A914218BF40F010007F
:101E4000DDF818E00499012840F0968798462CE0C8
:101E5000012840F09587DDF818E02006414619D4A6
:101E60004FF0010C5F46079140F26028C2F2000873
:101E70001CE000BF40F26028C2F20008D8F80C0055
:101E80005F46CCF804000CF108004FF0010C8646C8
:101E90000CE000BF40F26028C2F20008D8F80C0045
:101EA0004FF0010C4EF8040B5F460791059998F826
:101EB000000001310028059140F03887B9F101098F
:101EC0004FF005027FF436AE00F034BF40F26023DD
:101ED000C2F20003AAE700BF99F8020009F103016A
:101EE000002800F0A18410F00303A0F1010C00F021
:101EF0005B8499F8037009F10804F906214658BF7C
:101F000009F10401BF0758BF2146012B40F064834B
:101F1000604600F049BC00BF00223A703078B97FBB
:101F200005F1040B8842F87780F02A81B9F80200A5
:101F30000028069000F0648399F8048008F00100FE
:101F400004900A3002F0E0F85FEA887000F17883CC
:101F50000020CDF80CB00790069908AC56F8040F95
:101F6000BB46BF8A0139059108904046214602F0E0
:101F700079FB3FB1022805D19BF80000013F002802
:101F8000F3D06FE30599012840F06D83079800298D
:101F900000F101005F460790E0D1049800281CBFC3
:101FA0000A2002F0B1F8BBF81400441C0E200021F6
:101FB00002F058FB022840F0D286013C00F0CE86A9
:101FC0009BF8000000284FF00200EFD000F0C7BEE1
:101FD0000020A5F80100E870032000F076BE00BFE5
:101FE0003178827FC177914280F09081082002F0A1
:101FF0008BF8D9F8020003F04BF8FFF726B900BFC1
:10200000FF2084E146F6BF01C0F278410144B1FBF4
:10201000F0F140F26020C2F20000002242714AF664
:10202000AB20CAF6AA20A1FB00020120022988BF2A
:10203000500840F26021C2F20001886000208AF856
:1020400000000120C0F20500A0F5803606F1011065
:1020500009B0BDE8F08F00BF08F0FC0700240023A2
:1020600009EB0406B5780BEB44000BEB040181F897
:1020700020500385F2782B4481F82120438535795F
:102080001A4481F82250828573792A44043481F8F5
:102090002330A7421344C285E2D109EB0400461C59
:1020A000BEF1000F1ED00BF11E07707807EB440243
:1020B000391988705381BEF1010F034412D0601C9E
:1020C000B1783A1807EB400091704381BEF1020FDE
:1020D0000B4407D0A01CF1783A1807EB4000917030
:1020E00043810B44BCF1030F02D200271CE000BF68
:1020F00008F0FC0600270BEB070090F820100BEB14
:102100004702591A118790F821300437C91A5187AC
:1021100090F82230BE42A1EB0301918790F8230092
:10212000A1EB0003D387E6D1BEF1000F1CD00BF169
:102130001E02D0198078BEF1010FA3EB000302EB61
:102140004700438310D0781C1118897802EB4000B7
:102150005B1ABEF1020F438306D0B81C11188978B0
:1021600002EB4000591A418300204FF0011101EBAE
:1021700008468AF8000006F1011009B0BDE8F08FAA
:10218000002000F09CBD00BF042800F05B81032804
:1021900040F0578301F0E8FE002800F05183054627
:1021A00020462946FEF718FA2846FEF70EFA411C8B
:1021B00047E300BF4FF4002E4FF40057CBF800E187
:1021C000CBF88071CBF800E3002900F0BD8203F06A
:1021D0002003B3FA83F34FEA531C4CF2C063C0F2FE
:1021E0002D0341F2040206F0E00E994238BF0B467F
:1021F0009621CEF20002BEFA8EF403FB01F31768BB
:102200006409F20971084FEA9608002844EA0C04B0
:1022100046D1B9F1000F40F08580002D4CF2010C41
:1022200041F20405C4F2080CCEF2000540F014811E
:10223000002C00F02F820798002800F08582DBF840
:102240000010C1F3C0418A4200F07E822968C91B98
:10225000994280F07982DBF80010C1F3C0418A42D4
:1022600000F072822968C91B994280F06D82DBF808
:102270000010C1F3C0418A4200F066822968C91B80
:10228000994280F06182DBF80010C1F3C0418A42BC
:1022900000F05A822968C91B9942D0D354E200BF8A
:1022A0004CF2010CC4F2080CB9F1000F62D141F2FA
:1022B0000400CEF2000004E00168C91B994280F0DE
:1022C0004382DBF8001001F00101B142F4D11DB9E5
:1022D000002CF1D009E000BF9CF80010A8EB010130
:1022E000B1FA81F149090C42E6D00799002900F0C2
:1022F0002B82DBF80010C1F3C0418A42DCD123E21B
:1023000009F10207002000F08EBC00BFFF2001266B
:10231000C0F205068AF8000006F1011009B0BDE818
:10232000F08F00BF002D4CF2010C41F20405C4F205
:10233000080C9646CEF2000540F0FC80079884F029
:10234000010204E02E68F61B9E4280F0FD81DBF85E
:102350000060C6F380068E1B18BF01261643F1D11C
:10236000002800F0F181DBF80060C6F3C046B645F6
:10237000E8D1E9E141F204009646CEF2000004E023
:102380000268D21B9A4280F0DF81DBF8002002F065
:102390000102B242F4D1DBF80020C2F38002914284
:1023A000EED11DB9002CEBD009E000BF9CF8002055
:1023B000A8EB0202B2FA82F252091442E0D0079A64
:1023C000002A00F0C181DBF80020C2F3C04296452C
:1023D000D6D1B9E1E00700F04682BE8A88462046A1
:1023E000002103F077F9002E00F03A82022840F035
:1023F00037823878013E0028F1D030E140F2F71002
:1024000012E000BF4DF28010C0F6F00002E000BF05
:102410004FF40050C5F80200042112E20820012107
:1024200020700EE24FF400706880022109E200BFC4
:102430000220DDF814B0079A00F041BC4FF0010E05
:10244000E4E000BF3020A08042F63260C2F6316086
:1024500020600621F5E100BF002C00F041810798C3
:1024600068BB9CF80010884500F06E812968C91B84
:10247000994280F069819CF80010884500F06481E1
:102480002968C91B994280F05F819CF8001088453B
:1024900000F05A812968C91B994280F055819CF847
:1024A0000010884500F050812968C91B9942D8D393
:1024B0004AE100BF2968C91B994280F045819CF818
:1024C0000010884506D1DBF80010C1F3C0418A42F4
:1024D00000F03A812968C91B994280F035819CF847
:1024E0000010884506D1DBF80010C1F3C0418A42D4
:1024F00000F02A812968C91B994280F025819CF847
:102500000010884506D1DBF80010C1F3C0418A42B3
:1025100000F01A812968C91B994280F015819CF846
:1025200000108845C6D1DBF80010C1F3C0418A42D3
:10253000C0D109E1E4B1079805E000BF2A68D21BC9
:102540009A4280F00181DBF80020C2F380029142C0
:10255000F4D19CF800209045F0D1002800F0F480E0
:10256000DBF80020C2F3C0429645E7D1ECE000BFA3
:10257000DBF80020C2F38002914208BF9CF80020E3
:102580002A68D21B9A4280F0DF80DBF80020C2F379
:102590008002914208BF9CF800202A68D21B9A4210
:1025A00080F0D280DBF80020C2F38002914208BFA5
:1025B0009CF800202A68D21B9A4280F0C580DBF884
:1025C0000020C2F38002914208BF9CF800202A68D4
:1025D000D21B9A42CCD3B7E00F4617F8014B4A1DE5
:1025E000E10648BF1746A107394658BF1146022BDE
:1025F00040F0CE800238D7E00024002013E300BF73
:10260000002200205BE300BF4FF0000E0220B8F173
:10261000000F00F0E98118F00302A8F1010C00F0AE
:102620009D8109F1050319F8017BF90648BF994618
:10263000B90758BF9946012A1AD1E0468EE100BF7A
:10264000BC8A4046002102F00DF8002C00F03E81CB
:10265000022840F03B813878013C0028F1D002206C
:1026600000222CE30220DDF80CB0079A27E300BF1C
:10267000494611F8013B09F10507DC0648BF394618
:102680009B07894658BFB946022A40F05981A8F1F4
:10269000020863E1079888B92968C91B994253D297
:1026A0002968C91B99424FD22968C91B99424BD24C
:1026B0002968C91B9942EFD346E000BF2968C91BAE
:1026C000994241D22968C91B99423DD22968C91B48
:1026D000994239D22968C91B9942EFD334E000BF2F
:1026E0000798C8B99CF800102968C91B99422BD2D9
:1026F0009CF800102968C91B994225D29CF800104B
:102700002968C91B99421FD29CF800102968C91B6F
:102710009942E7D318E000BF9CF800102968C91B54
:10272000994211D29CF800102968C91B99420BD21A
:102730009CF800102968C91B994205D29CF800102A
:102740002968C91B9942E7D3DBF80010DBF80020A9
:10275000022303EA520201F001019CF80030114407
:1027600041EA83019CF80220DBF8000041EAC20143
:10277000802202EA103008438AF800000120C0F2EB
:10278000050000F5803606F1011009B0BDE8F08FB4
:102790000A4612F8013B0531DF0648BF0A469B078F
:1027A00058BF0A4603381146BCF1030F3CD30A78E0
:1027B0004C1D02F0020312F010024FF005022746F2
:1027C00004BF01224F1C002B08BF0522895C08BFF3
:1027D00027467C1D01F0020211F010014FF00501A7
:1027E000234604BF01217B1C002A08BF0521795C18
:1027F00008BF23465C1D01F0020211F010014FF0EA
:102800000501274604BF01215F1C002A04BF0521E2
:1028100027465A5C7B1DD106194658BF791C920782
:1028200058BF19460438C2D10020A5F80100881B02
:102830000004861C06F1011009B0BDE8F08F00BF4E
:1028400000214FF0021050FA81F08AF8001009B010
:10285000BDE8F08F0A2007904FF0010C022026E11E
:102860000128414664D1002008AE07900491E0079A
:10287000204618BF0E20B7F81480013906910029B0
:1028800008BF04462046314602F024FFB8F1000F8D
:1028900008D0022806D13878A8F101080028F1D024
:1028A00010E000BF012840F0098208984BF8040BA3
:1028B000079801300790069901200029D7D1049A82
:1028C000FDE100BF079A0220F9E100BF01282FD1E6
:1028D000049800280698A0F101014FF0000040F094
:1028E000C3810790BC8A46460591002908BF0E2681
:1028F000304608A901F0B6FE44B1022806D1387866
:10290000013C00284FF00200F2D0D7E1012840F04E
:10291000D58108984BF8040B07980130079005986B
:102920000028A0F101014FF00100DBD1C3E100BF9D
:102930000022C4E10220DDF80CE0BB4667E600BFE0
:10294000494611F8012B09F10503D70648BF19467E
:10295000920758BF1946A8F103088946BCF1030F36
:1029600042D399F8001009F1050701F0020211F0B5
:1029700010014FF005013B4604BF012109F101039D
:10298000002A08BF052119F8011008BF3B465C1D4D
:1029900001F0020211F010014FF00501274604BFBB
:1029A00001215F1C002A08BF0521595C08BF27468A
:1029B0007C1D01F0020211F010014FF005012346C9
:1029C00004BF01217B1C002A04BF052123465A1D98
:1029D000795C9146CF0658BF03F10109890758BFBA
:1029E0009146B8F10408BCD1DDF818804F460128A3
:1029F00040F08D81BEF1000F12D0B946BBF81470C3
:102A000008AC0E20214602F065FEFFB102281DD160
:102A10009BF80000013F0028F3D002204F4676E1EA
:102A2000049858B3BBF81400441C0E20002102F097
:102A300051FE022840F06B81013C00F013819BF8AD
:102A4000000000284FF00200EFD060E101284F465F
:102A500040F05D81DDE9071008700898000A4870B1
:102A6000BDF8220088709DF82300C8700431012051
:102A700007914CE14FF0000C022009E0012046E1F3
:102A8000DDF80CE0C2E500BF4FF0000C0220C346A9
:102A9000049907910BE000BF0A2007904FF0000C4B
:102AA000022004E04FF0000C0220CDF81C80DDF87D
:102AB00018E0B9F1000F7AD0E04619F00302A9F14D
:102AC000010C2DD00BF105031BF8017BF90648BF63
:102AD0009B46B90758BF9B46012A01D1E1461FE03A
:102AE000594611F8013B0BF10507DC0648BF394692
:102AF0009B078B4658BFBB46022A03D1A9F10209A6
:102B00000EE000BF594611F8012B0BF10503D70663
:102B100048BF1946920758BF1946A9F103098B46C9
:102B2000BCF1030FC44642D39BF800100BF105071C
:102B300001F0020211F010014FF005013B4604BF05
:102B400001210BF10103002A08BF05211BF8011028
:102B500008BF3B465C1D01F0020211F010014FF06E
:102B60000501274604BF01215F1C002A08BF05217B
:102B7000595C08BF27467C1D01F0020211F01001CC
:102B80004FF00501234604BF01217B1C002A04BF2E
:102B9000052123465A1D795C9346CF0658BF03F1A1
:102BA000010B890758BF9346B9F10409BCD1059CB4
:102BB00001285F4637D1CDF818E00798B9460A28B2
:102BC00004D00A20674601F09FFABC4640F2602814
:102BD000C2F20008B8F81470A346BCF1000F0FD081
:102BE00008AC0E20214601F03DFD0FB302281FD195
:102BF00098F80000013F0028F3D002200FE000BF4A
:102C00007C1C0E20002101F02DFD022807D1013C83
:102C1000F3D098F8000000284FF00200F1D0DDF862
:102C200018E05C464F46B91BAEEB0A026C7074E0CC
:102C300001285C464F4611D10898DDF81890A9F894
:102C40000000BDF8220009F1040189F802009DF896
:102C500023008E4689F803000120E4E7DDF818E040
:102C6000E1E700BF022052E008AC0790059121B9CE
:102C70000A2001F049FA4FF00E08BE8A404621466C
:102C800001F0F0FC46B1022806D13878013E002858
:102C90004FF00200F2D011E001280FD108984BF854
:102CA000040B07980130079005980028A0F1010156
:102CB0004FF00100DAD1069A01E000BF079A110A2D
:102CC0006A70A970E870ABEB0A0099F804108907E4
:102CD00010D499F8031099F80220890641EA82413C
:102CE00001F5802141EA000606F1011009B0BDE8B6
:102CF000F08F00BF40F4802606F1011009B0BDE856
:102D0000F08F00BF98464F4601283FF473AE079AF4
:102D100085F80180B91BA2EB0A0242EA0146A870BD
:102D200006F1011009B0BDE8F08F00BF0120BB46DD
:102D3000BFE600BF029C3EE74FF0010EFFF767BC05
:102D40004FF0000EFFF763BC0220DDE9042BB6E76D
:102D50000A2107914FF0010CA9E600BF0220069A54
:102D6000DDF80CB0ABE700BF4FF0000C90E600BF01
:102D70004FF0000C8BE600BFBB46079199E600BF01
:102D80004FF0000C91E60000FF224FF001100A7096
:102D90007047000040F26020C2F20000492200218A
:102DA00082606422C0E9052101228180017482834E
:102DB0008177FDF713BD000040F2082542F264461A
:102DC00043F264484FF00009C2F20005C2F2000667
:102DD0007F27C2F2000800BF812000214FF0FF32A0
:102DE00008F0FAFCE88829898842F5D0AC886002AE
:102DF000305C7E281AD106EB442005E06002315C8D
:102E000006EB44207E2911D10770601C6988B0F15F
:102E1000080418BF04468C42F0D1812000214FF0F5
:102E2000FF3208F0D9FC0006E8D500BFA888698900
:102E300006EB402008EB4121FEF718F9698905EB04
:102E400041014882A8880130A880A888082808BFC6
:102E5000A5F80490288901302881287880B1E88875
:102E60002989401A80B208280AD085F8009068881D
:102E7000012106EB402200204FF400730BF094FE7A
:102E80006889013068816889082808BFA5F80A9018
:102E9000E8890130E88168780028A3D0E889298A88
:102EA00088429FD0A889411CA981A98908EB4022AA
:102EB000082908BFA5F80C90298A0131298205EB61
:102EC000400185F801904B8A002081210BF08EFE95
:102ED00088E7000042F20000C4F2080000F0FEB9EA
:102EE00047F20000C4F20A0000F0F8B910B588B348
:102EF00090F80CE0BEF1170F38D280680123816A88
:102F000003FA0EFC41EA0C010EF01F04816200F18D
:102F100038024FEA5E11A34052F821401C420BD008
:102F200052F821401C4207D052F821401C4203D0E5
:102F300052F821401C42EFD1CEF3421100F12002A1
:102F400002EB81018A6D1A438A65016A41EA0C012C
:102F5000016210BD40F25A5040F21C51C0F2010013
:102F6000C0F2010140F2CF1207F0AAFC40F2F900D2
:102F7000C0F2010002A14FF4D67207F0A1FC00BF1D
:102F8000433A2F4B65696C5F76352F41524D2F5078
:102F900041434B2F4E58502F4C5043353553363903
:102FA0005F4446502F31332E312E302F64726976B4
:102FB0006572732F66736C5F646D612E680000002C
:102FC0002DE9F047DDF820C05FEA0C7740F0B880CB
:102FD000002A00F091808C79B2FBF4F707FB1427EC
:102FE000002F40F08980002B00F09280B3FBF4F7B3
:102FF00007FB1437002F40F08B80CD79042D00F2B1
:1030000093800F7A052F80F08F80052C80F0A480AC
:10301000B1F80AE0BEF5806F00F2A6804FF440766A
:1030200006EB0426042C06F440764FF4405408BF07
:103030004FF4007604EA0538042D08BF4FF44058D9
:10304000BD03042F4FF00107ADB207EB162708BFF1
:103050004FF44045B6F5007F08BF0427B2FBF7F4F4
:1030600004FB172424B9B3FBF7F404FB17342CB189
:1030700000210160C0E90111BDE8F08791F80090DE
:103080004C7891F802A049EA440491F8039044EA8C
:103090008A0491F804A044EAC904497944EA0A146C
:1030A00040F20009C0F2FF3944EA411109EB0E4435
:1030B00046445FFA81FE04EA09012E44C4F3094440
:1030C00031448E444FEA1836A90BB8F5405F08BF6B
:1030D000042604FB07F4B5F5404F08BF042114FB98
:1030E000062214FB0131C0F800E0C0E90121C0F85C
:1030F0000CC0BDE8F08700BF40F2703040F21C51B8
:10310000C0F20100C0F2010140F2BB1207F0D8FB8F
:1031100040F2C33040F21C51C0F20100C0F2010184
:103120004FF4DE7207F0CCFB40F2164040F21C5127
:10313000C0F20100C0F20101DD2207F0C1FB00BFB7
:1031400040F2B34040F21C51C0F20100C0F2010154
:103150004FF4DD7207F0B4FB40F21C5106A0C0F240
:103160000101DF2207F0ACFB40F21C5110A0C0F2BD
:103170000101E12207F0A4FB786665726366672DA2
:103180003E627974655769647468203C3D202875F7
:10319000696E74385F74296B444D415F5472616E7F
:1031A00073666572333242697457696474680000EB
:1031B000786665726366672D3E7472616E736665CC
:1031C00072436F756E74203C3D20444D415F4D410C
:1031D000585F5452414E534645525F434F554E54EB
:1031E0000000000010B5C8B3172A37D247F2000319
:1031F000C4F20A0399424FF0010C09D042F20003D5
:10320000C4F20803994235D14FF0000E002302E0CA
:1032100017234FF0010E0024C0E9021499181BA3D4
:10322000C0E9004447F6000413F90E30C2F200046E
:1032300044F8210003F01F014EF2001402730CFA4F
:1032400001F15B09CEF2000444F823100CFA02F2FB
:103250008068816C1143816410BD00BF40F25C2026
:1032600040F21C51C0F20100C0F2010140F2E7122D
:1032700007F026FB40F2914040F21C51C0F20100E1
:10328000C0F20101612207F01BFB00BF013A000000
:10329000172917D2026BCA40D2070BD100EB0112DB
:1032A0000023D2F80824C0F2FF331A409A4204BF28
:1032B0000020704700EB0110D0F80804C0F309406B
:1032C0000130704740F2F90040F21C51C0F2010099
:1032D000C0F20101C12207F0F3FA00002DE9F0432A
:1032E00081B042F20001C4F20801884208D047F2DE
:1032F0000001C4F20A01884254D1172001E000BF46
:10330000002047F60001C2F2000101EB800900260F
:103310004FF0010806E000BF0136172E04BF01B0D0
:10332000BDE8F08359F82640002CF5D0207BA16839
:1033300000F01F0301F15802400952F8205008FA2A
:1033400003F72F420BD042F8207025683DB1616829
:10335000204601220023A847207BA168400901F1F3
:10336000600252F820303B420BD042F820702568B2
:103370003DB16168204601220123A847207BA16856
:103380004009403151F820203A42C5D041F8207020
:103390002768002FC0D06168204600220223B8476A
:1033A000BAE700BF40F2914040F21C51C0F2010068
:1033B000C0F20101612207F083FA0000B0B50446B3
:1033C00047F20000C4F20A0084420FD042F200002B
:1033D000C4F20800844221D140F22020C4F200004F
:1033E0004FF480110160002507E000BF40F220206B
:1033F000C4F200000221012581600EA050F82500D2
:1034000002F090F840F25C00C0F2010050F8250094
:10341000A060206840F001002060B0BD40F2914003
:1034200040F21C51C0F20100C0F20101612207F01C
:1034300047FA00BF14000000010002002DE9F0412E
:10344000002855D0002953D0002A51D05F1E022FEA
:1034500001D3042B62D1DDF820C05FEA0C7751D193
:10346000069CB4FBF3FEBEF5806F35D80EFB13440B
:1034700094BB079E0025022E4FF00108C0E90055BD
:10348000C0E90255C0E9045585610DD840F2001429
:10349000F7004FF0011540F20116C0F20104FD40A3
:1034A000FE4024FA07F701E000260127C5740675DF
:1034B000077680E80610A0F816E0837480F8108084
:1034C000BCF1000F18BF4FF0010C80F80DC080F860
:1034D0000C80BDE8F08100BF40F2233040F21C5167
:1034E000C0F20100C0F2010140F22B2207F0E8F91E
:1034F00040F21C510EA0C0F2010140F2252207F05B
:10350000DFF900BF40F2B34040F21C51C0F20100AD
:10351000C0F2010140F2272207F0D2F940F21C511B
:1035200012A0C0F2010140F2262207F0C9F900BF43
:10353000284E554C4C20213D20636F6E66696729EB
:1035400020262620284E554C4C20213D20737263A6
:10355000416464722920262620284E554C4C202197
:103560003D20647374416464722900002862797498
:10357000655769647468203D3D2031554C29207C95
:103580007C2028627974655769647468203D3D2009
:1035900032554C29207C7C202862797465576964F7
:1035A0007468203D3D2034554C29000000281CBF84
:1035B000C0E90012704740F21C5103A0C0F20101A3
:1035C00040F2052207F07CF968616E646C65202189
:1035D0003D204E554C4C0000B0B1017B17291FD245
:1035E00082680120136A8840034302EB01101362D2
:1035F000D0F80014890748BF7047D0F8081441F08C
:103600000401C0F80814704740F25A5040F21C51AF
:10361000C0F20100C0F2010140F2CB3207F050F9D4
:1036200040F2B82040F21C51C0F20100C0F201018A
:1036300040F2CE3207F044F9B0B582B0002843D052
:10364000002941D00446007B172849D2A26842F2E3
:103650000003C4F208039A4208D047F20003C4F200
:103660000A039A4248D1012301E000BF0023156BF1
:10367000C540ED071EBF41F2883002B0B0BD40F238
:103680005C0502EB0012C0F2010555F8235091F8D9
:1036900018C0D2F8003405EB001523F0010040EA11
:1036A0000C00C2F80004B1E80C102846CDF800C0A8
:1036B000FFF786FC2868A168227B01EB0211C1F8A4
:1036C0000804002002B0B0BD40F2FE2040F21C51C0
:1036D000C0F20100C0F201014FF4697207F0F0F886
:1036E00040F2B02040F21C51C0F20100C0F20101D2
:1036F00040F2A53207F0E4F840F2914040F21C514C
:10370000C0F20100C0F20101612207F0D9F8000007
:103710002DE9F04381B0012B43DB16460A681C46B5
:103720000D460746E0B140F29439C2F2000909F1B2
:10373000200808E000222A60BE542868013C00F1FD
:1037400001022A602DD0501C7F28F5D9D9F8040039
:103750000028EFD04046394603F096FDEAE700BF67
:10376000C4F1000CA4F1010E0023D7187E1C802E9A
:103770001AD29E452E6014D0B81C7F2814D80CEBAA
:103780000306B11C28600CD0F81C7F280CD8F11C53
:10379000286006D004377F2F06D804339C422F6060
:1037A000E3D101B0BDE8F083FEE7000083B0B0B51F
:1037B000A1B0044625A80EC068468021FCF7FAFE99
:1037C00040F29435C2F20005686808B343F2117301
:1037D00025A96A462046C0F20003209103F076FD39
:1037E000044600284FF000000CD0696851B105F183
:1037F00020006946224603F047FD002818BF4FF01D
:10380000FF34204621B0BDE8B04003B0704700BF90
:10381000002021B0BDE8B04003B070474CF25031F9
:1038200000FB01F0401EFDD17047000041F2001284
:10383000C1F2003212F80A3C032B03D112682AB1FC
:10384000526B104712686AB1926A104740F27A6070
:1038500040F29261C0F20100C0F201014FF4F17236
:1038600007F02EF840F2626040F29261C0F201006F
:10387000C0F2010140F2DD1207F022F870B5ADF59B
:10388000007D41F20015C1F2003515F80A1C04460E
:10389000032913D1286800287AD0816A20468847F6
:1038A00000285AD10120606215F80A0C032819D1AA
:1038B0002868002800F08480C66C17E0286800287B
:1038C00072D0C16920468847002846D10120606235
:1038D00015F80A0C03281DD12868002870D0C66C82
:1038E0001CE000BF2868002876D0066C6946204698
:1038F00000224FF40073B04778BB0220606215F8D5
:103900000A0C019E03281DD12868002858D0C56CD8
:103910001CE000BF286800285ED0066C694620467F
:1039200000224FF40073B047B8B90220606215F866
:103930000A0C019E032813D12868002840D0C56CCA
:1039400011E000BF2868002846D0056C6946204673
:1039500000224FF40073A84768B10DF5007D70BDDB
:103960002868C8B3056C6946204600224FF40073EE
:10397000A8470028F1D101980221864288BF30462D
:1039800088BF0121C4E9080100200DF5007D70BD4C
:1039900040F27A6040F29261C0F20100C0F201018F
:1039A00040F2A91206F08CFF40F2626040F2926190
:1039B000C0F20100C0F2010140F29F1206F080FF48
:1039C00040F27A6040F29261C0F20100C0F201015F
:1039D0004FF4127206F074FF40F2626040F292619E
:1039E000C0F20100C0F2010140F2432206F068FF7C
:1039F00040F24C30C2F2000002682AB1416A46F23D
:103A00000000C4F20800104740F2695040F2BD5176
:103A1000C0F20100C0F20101B72206F051FF000020
:103A200040F24C30C2F2000042682AB1816A47F28B
:103A30000000C4F20800104740F2695040F2BD5146
:103A4000C0F20100C0F20101C52206F039FF0000FA
:103A500040F24C30C2F2000082682AB1C16A48F2DA
:103A60000000C4F20800104740F2695040F2BD5116
:103A7000C0F20100C0F20101D32206F021FF0000D4
:103A800040F24C30C2F20000C2682AB1016B49F228
:103A90000000C4F20800104740F2695040F2BD51E6
:103AA000C0F20100C0F20101E12206F009FF0000AE
:103AB00040F24C30C2F2000002692AB1416B4AF276
:103AC0000000C4F20800104740F2695040F2BD51B6
:103AD000C0F20100C0F20101EF2206F0F1FE000089
:103AE00040F24C30C2F2000042692AB1816B46F2CA
:103AF0000000C4F20900104740F2695040F2BD5185
:103B0000C0F20100C0F20101FE2206F0D9FE000061
:103B100040F24C30C2F2000082692AB1C16B47F218
:103B20000000C4F20900104740F2695040F2BD5154
:103B3000C0F20100C0F201014FF4867206F0C0FE2F
:103B400040F24C30C2F20000C2692AB1016C48F266
:103B50000000C4F20900104740F2695040F2BD5124
:103B6000C0F20100C0F201014FF48D7206F0A8FE10
:103B700040F24C30C2F20000026A2AB1416C4FF2AE
:103B80000000C4F20900104740F2695040F2BD51F4
:103B9000C0F20100C0F201014FF4947206F090FEF1
:103BA00049F6FF71C4F2080188421FDD46F6FF7135
:103BB000C4F2090188423BDD47F20001C4F2090169
:103BC000884204BF0620704748F20001C4F2090190
:103BD000884204BF072070474FF20001C4F2090178
:103BE000884204BF0820704716E000BF47F6FF7107
:103BF000C4F2080188422DDC46F20001C4F208013B
:103C0000884204BF0020704747F20001C4F2080157
:103C1000884204BF0120704740F2905040F2BD51ED
:103C2000C0F20100C0F201016A2206F049FE00BFA5
:103C30004AF20001C4F20801884204BF0420704720
:103C400046F20001C4F20901884204BF0520704712
:103C5000E2E700BF48F20001C4F20801884204BF55
:103C60000220704749F20001C4F20801884204BFF3
:103C700003207047D0E70000B0B5044649F6FF7056
:103C8000C4F2080084420D461ADD46F6FF70C4F205
:103C90000900844228DD47F20000C4F20900844292
:103CA0003ED048F20000C4F2090084423AD04FF2FC
:103CB0000000C4F20900844274D1082039E000BF3A
:103CC00047F6FF70C4F2080084421BDC46F2000095
:103CD000C4F20800844227D047F20000C4F2080072
:103CE00084425FD1012024E04AF20000C4F20800BF
:103CF00084421BD046F20000C4F20900844251D134
:103D0000052016E048F20000C4F2080084420FD0FB
:103D100049F20000C4F20800844243D1032008E0C5
:103D2000062006E0072004E0002002E0042000E076
:103D3000022040F26401C0F2010131F810100123A9
:103D40000A0AC9B203FA01F11CA353F8200040F299
:103D50002023C4F2000343F8221001F0E3FB8DB1ED
:103D6000042D07D8D4F8F80FE84000075CBF032003
:103D7000B0BD07E0052D03D1D4F8F80F000601D43B
:103D80000320B0BDD4F8F80F000707D5D4F8F80F1A
:103D900000F00700A8421CBF0120B0BD0020C4F8FD
:103DA000F85FB0BD40F2905040F2BD51C0F201004A
:103DB000C0F201016A2206F083FD00BF0B00010082
:103DC0000C0001000D0001000E0001000F000100B9
:103DD0001000010011000100120001001C0002008F
:103DE00049F6FF73C4F2080398421BDD46F6FF73E1
:103DF000C4F2090398422BDD47F20003C4F2090321
:103E0000984245D048F20003C4F20903984243D0D7
:103E10004FF20003C4F20903984255D14FF0080C49
:103E200048E000BF47F6FF73C4F2080398421FDC66
:103E300046F20003C4F20803984231D047F200036F
:103E4000C4F2080398423FD14FF0010C32E000BFAA
:103E50004AF20003C4F20803984225D046F2000358
:103E6000C4F2090398422FD14FF0050C22E000BFA5
:103E700048F20003C4F20803984219D049F2000343
:103E8000C4F2080398421FD14FF0030C12E000BFA8
:103E90004FF0060C0EE000BF4FF0070C0AE000BF29
:103EA0004FF0000C06E000BF4FF0040C02E000BF32
:103EB0004FF0020C40F24C33C2F2000303EB8C00D3
:103EC00043F82C104262704740F2905040F2BD51CE
:103ED000C0F20100C0F201016A2206F0F1FC00000C
:103EE000B0B5042934D24FF63C6CC0F2000C3CF85B
:103EF00011C040F220254FEA1C2E5FFA8CF44FF0DF
:103F0000010C0CFA04F4C4F2000545F82E401D78AB
:103F100095B100EB81005B780CFA02F100F50852D4
:103F2000002B08BF00F50A5211604FF4005283586D
:103F300019438150B0BD00BF00EB81004FF4005128
:103F400043580CFA02F223EA02024250B0BD00BF0D
:103F500040F2006040F22361C0F20100C0F20101B2
:103F60002D2206F0ADFC0000B0B594B005A8FFF717
:103F700085FC18B10025284614B0B0BD01AC05A8D9
:103F80002146FFF753FC18B10025284614B0B0BDF8
:103F900041F6B752A01E1021C0F2C1424FF0FF34CB
:103FA00010F8023F84EA036382EA4305B3F1FF3F5E
:103FB000C8BF5D0082EA4503B5F1FF3FC8BF6B0093
:103FC00082EA4305B3F1FF3FC8BF5D0082EA4503C3
:103FD000B5F1FF3FC8BF6B0082EA4305B3F1FF3F75
:103FE000C8BF5D0082EA4503B5F1FF3FC8BF6B0063
:103FF00082EA4305B3F1FF3FC8BF5D0082EA450393
:104000004478B5F1FF3FC8BF6B0083EA046382EADE
:104010004305B3F1FF3FC8BF5D0082EA4503B5F138
:10402000FF3FC8BF6B0082EA4305B3F1FF3FC8BF43
:104030005D0082EA4503B5F1FF3FC8BF6B0082EA2D
:104040004305B3F1FF3FC8BF5D0082EA4503B5F108
:10405000FF3FC8BF6B0082EA4305B3F1FF3FC8BF13
:104060005D0082EA4504B5F1FF3FC8BF6C0002392C
:1040700096D140F2C435C2F2000505A206A3284637
:10408000202100940BF040FB284614B0B0BD00BFC7
:1040900025732530385800003030413100000000D1
:1040A00080B568B1C1B11AB300784FF61C63C0F295
:1040B000000353F8200005F06FF9002080BD00BF19
:1040C00040F2625040F27A11C0F20100C0F20101E8
:1040D0004FF4C87206F0F4FB40F2751040F27A110A
:1040E000C0F20100C0F2010140F2911206F0E8FBBB
:1040F00040F2CA1040F27A11C0F20100C0F2010190
:104100004FF4C97206F0DCFBF0B540F26423C2F252
:1041100000035F784EF200224CF2010EC4F2080256
:1041200004250121C4F2080E1560C2F880107FB387
:104130001160C2F880101160C2F88050C2F880107F
:104140001160C2F8801011608EF8001093F81BC047
:1041500003EB4C018D8C002D00F0AA8015F00306B6
:10416000A5F1010400F092800127012E2146C2F83A
:104170008070176000F08B80022EC2F8807017608C
:1041800040F0F080A91E032C80F0838090E000BFF7
:104190005C68641EFDD111605C68641EFDD1C2F8CC
:1041A00080105C68641EFDD111605C68641EFDD1E6
:1041B000C2F88050C2F880105C68641EFDD11160A6
:1041C0005C68641EFDD1C2F880105C68641EFDD17D
:1041D00011605C68641EFDD18EF80010D97E03EB7F
:1041E0004107BD8C65B10121C2F880105C68641E76
:1041F000FDD111605C68641EFDD1013DF4D1D97E12
:104200005F183F7F012F12D0794201258EF8000000
:10421000C2F880505C68641EFDD115605C68641E45
:10422000FDD101314F1C4FEA5000EFD1D97E03EB95
:104230004101898E002900F05D808EF80000012088
:10424000C2F880005C68641EFDD110605C68641E6A
:10425000FDD18EF8000001290CD04942C2F880003F
:104260005C68641EFDD110605C68641EFDD1013184
:104270004F1CF3D104211160C2F880005968491E17
:10428000FDD110605868401EFDD141E02946032C45
:104290000ED301240439C2F880401460C2F8804073
:1042A0001460C2F880401460C2F880401460F1D1FC
:1042B00003EB0C010D7F6C1E00F08A8014F00306E6
:1042C000A5F1020C10D00124012E4FEA50018EF806
:1042D0000000C2F88040146034D164460846BCF146
:1042E000030F80F0558070E0BCF1030F80F0508028
:1042F0006BE000BF042111608EF800000120C2F8BD
:1043000080005968491EFDD110605868401EFDD1DB
:104310000120C2F880005968491EFDD1106059681B
:104320000427491EFDD1C2F88070C2F88000596888
:10433000491EFDD110605868401EFDD101208EF845
:104340000000F0BD8EF80010022E4FEA9001C2F876
:104350008040146010D1EC1E0846BCF1030F17D248
:1043600033E000BF0121C2F880101160E91E032C68
:10437000BFF48FAF9CE700BF8EF800100121C2F898
:1043800080101160C1082C1F0846BCF1030F1CD31C
:104390000125014648088EF80010C2F880501560CB
:1043A0008EF800008808C2F8805015608EF8000072
:1043B000C808043C4FEA1111C2F8805015608EF80D
:1043C0000000C2F880501560E4D193F81BC0084685
:1043D00003EB4C01898EE9B18EF800000123481EE1
:1043E000C2F8803013608EF800302FD010F0030632
:1043F000A1F1020319D00127012E1846C2F88070DE
:10440000176012D0022EC2F88070176008D1C81E43
:104410000BE000BF042111608EF8000018E000BF1F
:104420000120C2F880001060081F032B0ED3012169
:104430000438C2F880101160C2F880101160C2F810
:1044400080101160C2F880101160F1D1042010605A
:1044500001200421C2F880001060C2F880001060C2
:10446000C2F88010C2F88000106001208EF80000B1
:10447000F0BD0000B0B54EF2002EC4F2080E0421CB
:10448000012040F26422CEF80010CEF88000C2F283
:10449000000253685B1EFDD1CEF8000053685B1E1E
:1044A000FDD1CEF88010CEF880005168491EFDD1B4
:1044B000CEF800005168491EFDD1CEF88000516849
:1044C000491EFDD1CEF800005168491EFDD1D17EB4
:1044D00061B100BFCEF8800053685B1EFDD1CEF8FD
:1044E000000053685B1EFDD10139F3D14CF2030C7F
:1044F00000236FF01E01C4F2080C00BFCEF880004C
:104500005468641EFDD19CF80040CEF80000556848
:1045100043EAC4736D1EFDD101314FEA5303EDD35D
:1045200004200121CEF80000CEF880105468641EEB
:10453000FDD19CF80050CEF800105468641EFDD1E7
:10454000CEF880105468641EFDD1CEF80010546877
:10455000641EFDD1CEF88000CEF88010546843EA86
:10456000C570641EFDD1CEF800105168491EFDD102
:10457000B0BD00002DE9F04710F03F0C08BF4FF030
:10458000400C43064EF200294CF2010AC4F208091D
:104590004FF0040354BFC9F88030C9F8003000065A
:1045A000C4F2080A26D440F264240122C2F20004B4
:1045B00003E000BFBCEB030C52D011F8017BACF15F
:1045C000010600258AF80070C9F8802063685B1E28
:1045D000FDD19AF80230C9F8002063685B1EFDD156
:1045E000AE4205F10103E5D07F08072D1D46E9D154
:1045F000E0E700BF40F264284FF0010EC2F200086D
:104600000BE000BFC3F1080027FA00F0BCEB030C7D
:1046100002F8010B08BFBDE8F08711F8015BACF1AF
:1046200001060024002700BF8AF80050C9F880E086
:10463000D8F804305B1EFDD19AF80230C9F800E0CA
:10464000D8F80400DB01401EFDD143EA5707A6421B
:1046500004F10103D6D06D08072C1C46E4D1D1E744
:10466000BDE8F0872DE9F04F9FB040F2642BC2F215
:10467000000B9BF801504EF200224CF2010CC4F2E8
:10468000080204260127C4F2080C1660C2F88070E4
:1046900055B31760C2F88060C2F880701760C2F826
:1046A000807017609BF81B50002D00F0F78015F00C
:1046B0000304A5F1010600F0DF804FF0010E012C8C
:1046C0003746C2F880E0C2F800E000F0D680022C45
:1046D000C2F880E0C2F800E040F03C83AF1E032E39
:1046E00080F0CD80DAE000BFDBF80440641EFDD12D
:1046F0001760DBF80440641EFDD1C2F88060C2F888
:104700008070DBF80440641EFDD11760DBF80440C4
:10471000641EFDD1C2F88070DBF80440641EFDD138
:104720001760DBF80440641EFDD19BF81B7077B165
:10473000012600BFC2F88060DBF80440641EFDD192
:104740001660DBF80440641EFDD1013FF2D147083A
:1047500001248CF80070C2F88040DBF804506D1E14
:10476000FDD19CF802E01460DBF8045086086D1E51
:10477000FDD18CF80060C2F88040DBF804506D1E5B
:10478000FDD19CF802601460DBF80450C7086D1E70
:10479000FDD18CF80070C2F88040DBF8045046EA86
:1047A0004E076D1EFDD19CF802601460DBF80450CA
:1047B00047EA860E6D1EFDD1BEF1010F40F04E801E
:1047C000840700F1758209686FF01E04012500BF9F
:1047D0008CF80010C2F88050DBF804305B1EFDD16D
:1047E0001560DBF804305B1EFDD149080134EFD3BE
:1047F0009BF81B409BF81A50E3435E1900F0C682F9
:104800008CF800100121C2F88010DBF804305B1E28
:10481000FDD11160DBF804305B1EFDD1012E0ED0FE
:10482000631B9C1CC2F88010DBF804305B1EFDD1BA
:104830001160DBF804305B1EFDD10134F2D3042398
:104840001360C2F88010DBF804305B1EFDD11160EC
:10485000DBF80410491EFDD1BEE200BF0421116047
:10486000C2F88040DBF80410491EFDD11460DBF86B
:104870000410491EFDD1AFE22F46032E0ED30126B0
:10488000043FC2F880601660C2F880601660C2F80B
:1048900080601660C2F880601660F1D1470801247C
:1048A0008CF80070C2F8804086089CF80270146092
:1048B0008CF80060C2F880409CF80260146046EA00
:1048C0004707C6088CF80060C2F880409CF8026078
:1048D000146047EA860EBEF1010F40F0E1808407C4
:1048E00000F1E4800C68012165088CF80040C2F8F2
:1048F000801011608CF80050A508C2F8801011607B
:104900008CF80050E508C2F8801011608CF8005057
:104910002509C2F8801011608CF800506509C2F8B2
:10492000801011608CF80050A509C2F88010116049
:104930008CF80050E509C2F8801011608CF8005026
:10494000250AC2F8801011608CF80050650AC2F880
:10495000801011608CF80050A50AC2F88010116018
:104960008CF80050E50AC2F8801011608CF80050F5
:10497000250BC2F8801011608CF80050650BC2F84E
:10498000801011608CF80050A50BC2F880101160E7
:104990008CF80050E50BC2F8801011608CF80050C4
:1049A000250CC2F8801011608CF80050650CC2F81C
:1049B000801011608CF80050A50CC2F880101160B6
:1049C0008CF80050E50CC2F8801011608CF8005093
:1049D000250DC2F8801011608CF80050650DC2F8EA
:1049E000801011608CF80050A50DC2F88010116085
:1049F0008CF80050E50DC2F8801011608CF8005062
:104A0000250EC2F8801011608CF80050650EC2F8B7
:104A1000801011608CF80050A50EC2F88010116053
:104A20008CF80050E50EC2F8801011608CF8005030
:104A3000250FC2F8801011608CF80050650FC2F885
:104A4000801011608CF80050A50FC2F88010116022
:104A50008CF80050C2F8801011609BF81B609BF826
:104A60001A70F543ED194FEAD47400F07D818CF88B
:104A700000406C1EC2F88010116000F00F82B91B5C
:104A80008E1C16F00306A1F1030100F0F68101244B
:104A9000012EC2F88040146040F0DA81AC1EECE1D7
:104AA00004211160C2F880401460A4E24FF00108B4
:104AB000C2F880809CF802301E93C2F80080C2F8D1
:104AC00080809CF802301D93C2F80080C2F880807C
:104AD0009CF80290C2F80080C2F880809CF80270B6
:104AE000C2F80080C2F880809CF80260C2F80080A2
:104AF000C2F880809CF802301C93C2F80080C2F893
:104B000080809CF802301B93C2F80080C2F880803D
:104B10009CF802301A93C2F80080C2F880809CF89A
:104B200002301993C2F80080C2F880809CF80230ED
:104B30001893C2F80080C2F880809CF80230179366
:104B4000C2F80080C2F880809CF802301693C2F848
:104B50000080C2F880809CF802301593C2F8008073
:104B6000C2F880809CF802301493C2F80080C2F82A
:104B700080809CF802301393C2F80080C2F88080D5
:104B80009CF802301293C2F80080C2F880809CF832
:104B900002301193C2F80080C2F880809CF8023085
:104BA0001093C2F80080C2F880809CF802300F9306
:104BB000C2F80080C2F880809CF802300E93C2F8E0
:104BC0000080C2F880809CF802300D93C2F800800B
:104BD000C2F880809CF802300C93C2F80080C2F8C2
:104BE00080809CF802300B93C2F80080C2F880806D
:104BF0009CF802300A93C2F80080C2F880809CF8CA
:104C000002300993C2F80080C2F880809CF802301C
:104C10000893C2F80080C2F880809CF802300793A5
:104C2000C2F80080C2F880809CF802300693C2F877
:104C30000080C2F880809CF802300593C2F80080A2
:104C4000C2F880809CF802300493C2F80080C2F859
:104C500080809CF802300393C2F800809BF81B40D0
:104C60009BF81AA0E54315EB0A0300F08380CDE919
:104C70000167C2F880809CF802504F46B3F10109E9
:104C80000095C2F8008000F02A81AAEB0404A51C5C
:104C900015F00305A4F1030400F00E810126012D97
:104CA000C2F88060166040F0DB80A3F1020903E1E6
:104CB00000246FF01E050126C2F88060DBF8047046
:104CC0007F1EFDD19CF802701660DBF804305B1E7D
:104CD000FDD144EAC77301354FEA5304ECD39BF886
:104CE0001B709BF81A50FB4313EB050900F0608022
:104CF0000126C2F88060DBF804305B1EFDD19CF811
:104D000002801660DBF804305B1EFDD1B9F1010FA3
:104D10000FD07B1B9D1C00BFC2F88060DBF8043005
:104D20005B1EFDD11660DBF804305B1EFDD1013542
:104D3000F2D304231360C2F88060DBF804305B1EFA
:104D4000FDD11660DBF804305B1EFDD1002940D197
:104D500042E000BF0123C2F880301360EF1E032E33
:104D6000BFF48DAD9AE500BF042515608CF80040B6
:104D700097E000BF04241460C2F880809CF8028091
:104D800001240029146040F0B78034E1042313604B
:104D90008CF800100121C2F88010DBF804305B1E93
:104DA000FDD11160DBF80410491EFDD114E000BFF5
:104DB000042313600123C2F88030DBF804506D1E19
:104DC000FDD19CF802801360DBF804305B1EFDD13E
:104DD00011B144EAC8730B600121C2F88010DBF8FE
:104DE00004305B1EFDD11160DBF8043004245B1E2F
:104DF000FDD1C2F88040C2F88010DBF804305B1EA1
:104E0000FDD11160DBF804305B1EFDD18CF8001081
:104E1000000606D541F20400CEF200000068CBF88F
:104E200008009BF80C00002800F02481012100BF3D
:104E3000C2F88010DBF804305B1EFDD11160DBF896
:104E4000043001385B1EFDD10028F1D112E100BF12
:104E5000022EC2F8804014600AD1EC1E0DE000BFA3
:104E6000022DC2F88060166020D1A3F1030923E06F
:104E70000123C2F8803013602C1F03290ED30121B7
:104E8000043CC2F880101160C2F880101160C2F8B2
:104E900080101160C2F880101160F1D104211160FE
:104EA0000121C2F880101160A5E000BF0125C2F801
:104EB00080501560A3F10409032C10D3012400BF16
:104EC000B9F10409C2F880401460C2F8804014604F
:104ED000C2F880401460C2F880401460F0D104240D
:104EE00014600124C2F88040B946029FDDE90086C3
:104EF0000124002914607ED01E9B4FF0804404EAF8
:104F000083741D9B4FEAC97544EAC3741C9B45EA30
:104F10005404FD0745EA5404F50745EA5404DD0747
:104F20001B9B45EA5404DD071A9B45EA5404DD0740
:104F3000199B45EA5404DD07189B45EA5404DD0734
:104F4000179B45EA5404DD07169B45EA5404DD0728
:104F5000159B45EA5404DD07149B45EA5404DD071C
:104F6000139B45EA5404DD07129B45EA5404DD0710
:104F7000119B45EA5404DD07109B45EA5404DD0704
:104F80000F9B45EA5404DD070E9B45EA5404DD07F8
:104F90000D9B45EA5404DD070C9B45EA5404DD07EC
:104FA0000B9B45EA5404DD070A9B45EA5404DD07E0
:104FB000099B45EA5404DD07089B45EA5404DD07D4
:104FC000079B45EA5404DD07069B45EA5404DD07C8
:104FD000059B45EA5404DD07049B45EA5404DD07BC
:104FE000039B45EA5404DD0745EA54044FEAC875BB
:104FF00045EA54040C60012104240006C2F8801024
:105000001160C2F88040C2F8801011608CF8001066
:1050100006D541F20400CEF200000068CBF808008B
:105020009BF80C3033B313F00307A3F101010FD049
:105030000126012F0846C2F88060166009D0022FB1
:10504000C2F8806016601BD1981E032912D302E0BB
:10505000184603290ED301210438C2F880101160CC
:10506000C2F880101160C2F880101160C2F8801080
:105070001160F1D15FFA8EF01FB0BDE8F08F00BF74
:10508000D81E0123C2F8803013600329F2D3E2E76F
:10509000B0B54EF2002EC4F2080E0421012340F2F6
:1050A0006422CEF80010CEF88030C2F200025468BC
:1050B000641EFDD1CEF800305468641EFDD1CEF8D8
:1050C0008010CEF880305168491EFDD1CEF80030F6
:1050D0005168491EFDD1CEF880305168491EFDD17E
:1050E000CEF800305168491EFDD1D17E61B100BFBC
:1050F000CEF880305468641EFDD1CEF8003054687C
:10510000641EFDD10139F3D14CF2010CC4F2080C3C
:1051100000218CF80010CEF880305168491EFDD176
:10512000CEF800305168491EFDD1CEF8803051686C
:10513000491EFDD1CEF800305168491EFDD1CEF890
:1051400080305168491EFDD1CEF800305168491EAB
:10515000FDD16FF01E0100BF8CF80000CEF880304A
:105160005468641EFDD1CEF800305468641EFDD131
:1051700040080131F0D3D17E937ECC43E4182BD08C
:105180008CF800000120CEF8800055686D1EFDD11E
:10519000CEF8000055686D1EFDD1012C0ED0C91A45
:1051A000023100BFCEF8800053685B1EFDD1CEF8FF
:1051B000000053685B1EFDD10131F3D30421CEF80A
:1051C0000010CEF880005168491EFDD1CEF80000D5
:1051D0005068401EFDD10FE00421CEF800108CF87D
:1051E00000000120CEF880005168491EFDD1CEF8A4
:1051F00000005068401EFDD10120CEF880005168AB
:10520000491EFDD1CEF8000051680423491EFDD18E
:10521000CEF88030CEF880005168491EFDD1CEF81E
:1052200000005168491EFDD18CF80000B0BD00009F
:10523000002B08BF704741F24660101AB0FA80F0A8
:10524000400941F247618A4208BF02201847000026
:10525000F0B585B040F22025C4F200054FF40050AF
:105260004CF2000428604FF48040C4F20804286027
:1052700000260DF11203204600210022ADF8126035
:10528000FEF72EFE04AB204600210122ADF810608F
:105290000127FEF725FE0DF10E0320460021022214
:1052A000ADF80E60FEF71CFE40F20110ADF80C00E8
:1052B00003AB204600210522FEF712FE0DF10A0382
:1052C000204600210D22ADF80A70FEF709FE02AB60
:1052D000204600211322ADF80860FEF701FE0DF113
:1052E0000603204600211C22ADF80670FEF7F8FDEB
:1052F000D5F8E00D40F2411240F4A07020F00F000C
:10530000C5F8E00D41F20400C4F20000016841F468
:10531000A07121F00F010160016B41F4807121F057
:105320000F010163816C41F4A07121F00F018164D0
:10533000416841F4A07121F03F014160C16D11430A
:1053400021F00E01C165016E114321F00E010166CD
:10535000C16E41F4A07121F00F01C1668168114353
:1053600021F00E018160016940F2071241F4907151
:1053700021F01F010161D0F88410114321F00801D0
:10538000C0F8841005B0F0BD10B500F1280151E857
:10539000002F12B9BFF32F8F04E0531E41E80034F1
:1053A00004B1F4E772B12C300121006850B1821CC5
:1053B000D2E84F3FC2E8441F04B1F9E71A0602D011
:1053C0000830F2E7002010BD70B5024652F8305F99
:1053D0004DB1CC7800235DB12E46ED78A5420DD2BB
:1053E00075683346F7E70023C162C1E901330DE078
:1053F0000024C1E9014300F12C0403E0C1E9016389
:1054000006F108042160002B18BF1A1D1160283016
:1054100050E8001F4A1C40E8002303B1F8E770BDC4
:10542000D1E9012312B193608B6800E0C362191DBA
:10543000002B08BF00F130010A6070471A4800686D
:10544000704700BF19480178012905D105494FF07F
:1054500080620A60002101701348016841F0010177
:105460000160704704ED00E04FF0FF30704700002E
:1054700040B10B490968B1FBF0F0411E0020B0EBD0
:10548000116F02D04FF0FF307047064AFF231370B0
:105490000623054A13605160044908709060704704
:1054A0002800002023ED00E010E000E0D85D00209F
:1054B00021682046D4E9022305F024BD6FF00500E1
:1054C0007047002100220646002706F033B86FF02F
:1054D000050070476FF0030010BD4DF808ED204641
:1054E00005F09EFF20465DF808EB05F0C5BE0446BA
:1054F0000078F1287047000010B50849022488425E
:1055000038BF01240649884238BF0024204605F0F0
:1055100043FA2046BDE8104005F0C8BA81A4BF0791
:1055200001E1F50580B582B2202A37D240F20011A0
:10553000000CC4F200014FF0010C01EB800E0CFADC
:1055400002F2CEF8202000BF51F8203013420BD1D8
:1055500051F82030134207D151F82030134203D1C3
:1055600051F820301342EFD0CEF840200BE000BFBE
:1055700051F8203013409A4218BF80BD51F82030B6
:1055800013409A4209D151F8203013409A4204D175
:1055900051F8203013409A42EAD080BD40F210709A
:1055A00040F2D061C0F20100C0F20101302205F0EA
:1055B00087F9000080B5002808BF80BD44F2402272
:1055C000A1FB0001C0F20F0291420BD240F6001283
:1055D000C0F23D020023FAF7A3FF0046401E002858
:1055E000FCD180BD40F2172102A0C0F20101C5220A
:1055F00005F066F9636F756E74203C3D2055494E89
:105600005433325F4D4158002DE9F04110F03F0C0A
:1056100008BF4FF0400C00064EF200204CF2020E84
:10562000C4F20800C4F2080E24D440F2642301221C
:10563000C2F2000305E000BFBCEB070C08BFBDE8E9
:10564000F08111F8014BACF1010500268EF8004005
:10565000C0F880205F687F1EFDD102605F687F1EFA
:10566000FDD1B54206F10107E6D06408072E3E469B
:10567000ECD1E1E740F264234FF00108C2F20003ED
:1056800009E000BFC7F1080125FA01F102F8011B8A
:10569000BCEB070C1CD0ACF101040026002500BFB8
:1056A000C0F880805F687F1EFDD19EF80070C0F852
:1056B00000805968FF01491EFDD147EA5505B442F3
:1056C00006F10107DED0072E3E46E9D1DAE700BF3A
:1056D000BDE8F0812DE9F04740F26429C2F20009EB
:1056E00099F801704CF2020C4EF2002AC4F2080C38
:1056F0000124C4F2080A002F8CF80040CAF8804048
:1057000000F09A804708CAF800408CF80000CAF8F8
:105710008040CAF800408CF8007000EB5007860803
:1057200007EB9007CAF8804007EBD007CAF80040A3
:105730008CF80060C608CAF88040CAF800408CF8AF
:105740000060CAF88040CAF800408CF8007000275A
:10575000CAF88040CAF800408CF800704FF08057BB
:10576000CAF88040CAF800408CF80040CAF880406F
:10577000CAF80040CAF880700427CAF8007299F885
:105780001880B8F1000F2BD0A8F1010718F003051D
:10579000464610D00124012D3E46CAF88040CAF882
:1057A000004008D0022DCAF88040CAF8004040F0FE
:1057B0008D85A8F10206032F12D30127043ECAF8F3
:1057C0008070CAF80070CAF88070CAF80070CAF811
:1057D0008070CAF80070CAF88070CAF80070EDD105
:1057E0000124CAF880409CF80070CAF80040CAF84A
:1057F00080409CF80060CAF80040CAF8804047EA40
:1058000046079CF80060CAF8004047EA860EBEF1E1
:10581000040F18BFBEF1020F40F01E8499F8191052
:1058200010F0020018BF002940F03C84B8F1000FCE
:1058300040F0C18400F0FABDD9F80420521EFDD119
:10584000CAF80040D9F80420521EFDD18CF800009F
:10585000CAF88040D9F80420521EFDD1CAF8004091
:10586000D9F804204308521EFDD18CF80030CAF844
:105870008040D9F80420521EFDD1CAF80040D9F862
:1058800004208308521EFDD18CF80030CAF88040F5
:10589000D9F8042000EB5003521EFDD1CAF8004095
:1058A000D9F80420C708521EFDD18CF80070CAF840
:1058B000804003EB9003D9F80420521EFDD1CAF8B2
:1058C000004003EBD003D9F80420521EFDD18CF820
:1058D0000030CAF88040D9F80420521EFDD1CAF821
:1058E0000040D9F804200023521EFDD18CF800306E
:1058F000CAF88040D9F80420521EFDD1CAF80040F1
:10590000D9F80420521EFDD18CF80040CAF880401E
:10591000D9F80420521EFDD1CAF80040D9F804205D
:10592000521EFDD14FF080530422CAF88030CAF8CD
:10593000002299F818707FB1012600BFCAF8806074
:10594000D9F80420521EFDD1CAF80060D9F804200D
:10595000521EFDD1013FF1D10122CAF88020D9F8B1
:1059600004305B1EFDD19CF80030CAF80020D9F845
:105970000440641EFDD1CAF88020D9F80440641E9A
:10598000FDD19CF80070CAF80020D9F80440641ECC
:10599000FDD1CAF88020D9F8044043EA4703641EC9
:1059A000FDD19CF80070CAF80020D9F8042043EA21
:1059B000870E521EFDD1BEF1040F18BFBEF1020FBB
:1059C00040F0148410F0020000F0928199F8191050
:1059D000002900F08D810121CAF88010D9F8042037
:1059E000521EFDD1CAF80010D9F80420521EFDD174
:1059F000CAF88010D9F80420521EFDD1CAF8001050
:105A0000D9F80420521EFDD1CAF88010D9F804201C
:105A1000521EFDD1CAF80010D9F80420521EFDD143
:105A2000CAF88010D9F80420521EFDD1CAF800101F
:105A3000D9F80420521EFDD1CAF88010D9F80420EC
:105A4000521EFDD1CAF80010D9F80420521EFDD113
:105A5000CAF88010D9F80420521EFDD1CAF80010EF
:105A6000D9F80420521EFDD1CAF88010D9F80420BC
:105A7000521EFDD1CAF80010D9F80420521EFDD1E3
:105A8000CAF88010D9F80420521EFDD1CAF80010BF
:105A9000D9F80420521EFDD1CAF88010D9F804208C
:105AA000521EFDD1CAF80010D9F80420521EFDD1B3
:105AB000CAF88010D9F80420521EFDD1CAF800108F
:105AC000D9F80420521EFDD1CAF88010D9F804205C
:105AD000521EFDD1CAF80010D9F80420521EFDD183
